:020000040800F2
:1000000038080020C9000008614000088D3B000846
:1000100000000000000000000000000000000000E0
:100020000000000000000000000000007D48000803
:100030000000000000000000634300087F48000843
:10004000DB00000800000000DB000008DB00000807
:10005000DB000008DB000008DB000008C11100081D
:1000600000000000DB000008DB000008DB000008E7
:10007000DB000008DB000008DB00000800000000D7
:10008000DB000008DB000008000000004549000814
:1000900055490008DB000008DB000008DB00000811
:1000A000DB00000809450008DB000008E5520008F5
:1000B000F55200080348854600F082FA00480047E0
:1000C000595F00083808002004488047044800476A
:1000D000FEE7FEE7FEE7FEE7FEE7FEE7D1480008A1
:1000E000B500000830B50B4601460020202201244F
:1000F00009E00D46D5409D4205D31D469540491B5C
:100100002546954040191546521E002DF1DC30BDA4
:1001100010B5202A04DB0846203AD040002110BD4B
:100120000B46D340D0402024A21A914008431946E0
:1001300010BD03460B439B0703D009E008C9121FFB
:1001400008C0042AFAD203E00B780370401C491C53
:10015000521EF9D2704730B504460020034600E035
:100160005B1C934203D2E05CCD5C401BF8D030BDF9
:10017000F8B502464A40D40F42004B0052085B08D3
:100180009A4202D20246084611464A0023D0C30DC5
:100190004A00DDB2120EAD1A202D35DA49020126D1
:1001A000490AF6058A19002C00D0524220214F1B23
:1001B0001146B9402A411018C20D9A4221D0002C94
:1001C00017D0012D08DCDA05801AD20F8019D2076A
:1001D000DBB200F05DF9F8BDDA05801A01234000BA
:1001E0001B06C01880185A428018CA0F10434900D5
:1001F00007E04908C2071143DA05801A8019400850
:10020000801800F03DF9F8BD61000122511A001B71
:10021000F7E70122D2075140AAE70122D207504056
:10022000A6E770B502464A40D50F40004A00ED07E8
:1002300040085208002814D0002A12D0C40DD30D53
:1002400041020120C0055202490A520AE41A091863
:1002500012187D34914201D3641C00E04900002C47
:1002600001DA002070BD0023914201D3891A0343B3
:10027000400849000028F7D100290AD0914202D154
:100280000121C90705E0914201D2012101E00121CC
:10029000C943E005C018401900F0F2F870BD000035
:1002A000F0B50C465C4085B0E40FE40703944C00C5
:1002B00000266408590094464908024602962243E3
:1002C00021D062460A431ED06200570D4A000E0339
:1002D0002303550D012402462C492405781B1B0BD2
:1002E000360B401823432643614600901C46501AA3
:1002F000B44103D30098401C009002E0921800988B
:100300005B41002803DA0020014605B0F0BD002063
:10031000012109050746864611E064461D46141B67
:10032000B54106D36546521BB341744607430C439F
:10033000A646CD0740084908284392185B41054668
:100340000D43EAD11046184313D060461946504079
:100350007140084306D06046101AB34106D201220C
:10036000002306E000220123DB0702E00122D24342
:100370005310009874460105381C6141029C039D8E
:100380000019694100F0BDF8BFE70000FD0300005F
:100390000EB505490291002100910A460B460191D4
:1003A00000F0BCF803B000BD33040000410040027F
:1003B0000122400AD205090E80187F2901DA0020A7
:1003C0007047962903DC9622511AC8407047963927
:1003D00088407047CB0FDB07490010B5490802463B
:1003E0000A4307D00A0D07240903E401090B121B75
:1003F000002A01DC002010BDC900440F0C43C100DD
:10040000E018D205801800F03BF810BD0122D20799
:10041000002800DB101A002900DB511A81427047C6
:10042000F0B51FB40646002082B005464024019175
:1004300000901BE0019922460F463046FFF768FE08
:10044000049A059B801A994110D3104619462246FA
:1004500000F0C8F8361A8F4101972246012000218A
:10046000009F00F0BFF838184D4100902046641EF0
:100470000028DFDC019B00982946324607B0F0BD1A
:10048000002904DA401C490001D1400840007047AF
:1004900070B40024050C05D11024000402D10029F9
:1004A00021D01124050E01D100020834050F01D11D
:1004B0000001241D850F01D18000A41C002801DB50
:1004C0004000641C002908D020252E1B0D46F54055
:1004D000A14000D001212943084301061B1B000A4B
:1004E000DB1D02D5002070BC7047DB051818801892
:1004F0000029F8DA401C4900F5D170BC40084000E2
:10050000704710B5002B08DA0024401C6141921896
:100510005B411A4301D14008400010BDF0B51FB443
:1005200082B005460C0003D0084605F06BF802E0E7
:1005300005F068F82030024600902146284600F079
:1005400051F8049B059A04460F461843114308438B
:1005500014D0184610431BD0009840210A1A1846A0
:100560000599FFF7D5FD05460E46009A05990498B2
:1005700000F038F8084305D0012004E02046394651
:1005800007B0F0BD0020C11705430E432C4337438D
:1005900000990E986305401A7905E40A00220C437D
:1005A000FD0A0A3002D500200146E9E701051019CD
:1005B00069410C9C0D9D00196941FFF7A2FFDFE71F
:1005C000064C0125064E05E0E36807CC2B430C3CA6
:1005D00098471034B442F7D3FFF770FD506C000811
:1005E000706C000810B5202A04DB0146203A9140C7
:1005F000002010BD914020239C1A0346E34019437C
:10060000904010BD70B58C180578401C6B075B0FCF
:1006100001D10378401C2A1106D10278401C03E066
:1006200006780E70401C491C5B1EF9D12B0705D4BF
:100630000023521E0DD40B70491CFAE70378401CAE
:10064000CB1A921C03E01D780D70491C5B1C521ED6
:10065000F9D5A142D8D3002070BD000000B58BB001
:100660001D4B0FCB059302AB07C303F0F1FF1B49F2
:100670001B4805F05BFD1B491B4805F06DFD1B4940
:100680001B4805F07FFD00BF1A484069012189041D
:100690000843184948610846406901218904084017
:1006A000019000BF00BF402006900120079000206D
:1006B00008900320099006A90F4800F0DDFF00F024
:1006C0006FF902A9012005F08DFA401C002801D124
:1006D00000BFFEE70BB000BDF06B00081B45000833
:1006E000194500081D4500082D450008E946000889
:1006F000A5460008001002400004004800B58DB077
:100700000BA803F05DFB08A8C07B009008A8837BC2
:10071000427B017B5BA004F04BFF08A8007BC02854
:1007200018D108A8407BA82814D108A8807B0128EC
:1007300010D104220BA95848FFF7FBFC5648801F34
:10074000407A00905448801F037AC279817953A07F
:1007500004F02EFF5648C06A06905548006B07907B
:100760005348406B089053A006A90EC904F020FF1F
:10077000002108A801714E48808DC1B208A84171BE
:100780004B48808D0004010E08A881714848C06A5A
:100790000002010E08A8C1714548C06A010E08A8F0
:1007A00001724348008EC1B208A84172417A007AB2
:1007B0000191009008A8C3798279417947A004F09B
:1007C000F7FE062209A93448801FFFF7B2FC324920
:1007D000891F002005F0DEF92F49891F012005F04F
:1007E000D9F904A9082005F0FDF904A946A004F0F0
:1007F000DFFE2948801F40792749891F0979264A49
:10080000921FD2780092019102902348801F837832
:100810004278017842A004F0CBFE1F48801F407A46
:1008200000901D48801F037AC27981791BA004F0D3
:10083000BFFE1948801F407C00901748801F037C32
:10084000C27B817B40A004F0B3FE1348801F407B35
:1008500000901148801F037BC27A817A3FA004F088
:10086000A7FE0D48801F407D00900B48801F037D30
:10087000C27C817C3EA004F09BFE42A004F098FE66
:100880000DB000BD49503A2025642E25642E256404
:100890002E25640D0A000000CA0000205349503A7A
:1008A0002025642E25642E25642E25640D0A000063
:1008B00080F7FF1F726E2323232323232323232365
:1008C0002320D0BEC6ACCEA8D2BB4944CEAA3A2083
:1008D00025582D25582D2558200D0A00726E2323EA
:1008E00023232323232323232320BDD8C8A1494422
:1008F000CEAA3A2025582D25582D25582D25582D7E
:100900002558200D0A0000000D0A3D3D3D202573AD
:10091000204E455420434F4E46203D3D3D0D0A009C
:100920004D41433A20253032583A253032583A2545
:100930003032583A253032583A253032583A25303C
:1009400032580D0A000000004741523A2025642E1B
:1009500025642E25642E25640D0A00005355423A65
:100960002025642E25642E25642E25640D0A0000A2
:10097000444E533A2025642E25642E25642E25648A
:100980000D0A00003D3D3D3D3D3D3D3D3D3D3D3D74
:100990003D3D3D3D3D3D3D3D3D3D0D0A00000000DE
:1009A00010B500224021074800F06BFF0A2000F03C
:1009B0005BFD01224021034800F063FF0A2000F0A4
:1009C00053FD10BD0004004800B587B000BF1148BA
:1009D00040690121C90408430E494861084640693D
:1009E0000121C9040840019000BF00BF8811029096
:1009F00001200390002004900320059002A90648DE
:100A000000F03AFE01225103034800F03AFF07B01C
:100A100000BD0000001002400008004810B501228F
:100A20005103024800F02DFF10BD000000080048EF
:100A300010B5002201214903014800F022FF10BD3A
:100A40000008004810B501214903024800F015FFD5
:100A500010BD00000008004810B5024613780120C0
:100A600002E0145C6340401C4C1E8442F9DC1846D2
:100A700010BD000038B50446E17968460170217A5E
:100A80004170617A8170A17AC17003F0E1F90C21A3
:100A90000348FFF7E1FF02490873084638BD00002C
:100AA0008F00002010B504460648C472204603F0AB
:100AB000F3F90E210348FFF7CFFF024948730846B8
:100AC00010BD000026000020FEB504460E4682A0A0
:100AD00004F06EFD00200290029009E00298225C72
:100AE000014680A004F064FD0298401CC0B2029050
:100AF0000298B042F2DB7EA004F05AFD6079000259
:100B0000A1790843C7B2B7421EDAF21BE1192046A9
:100B1000FFF70FFBF01B86B276A004F049FD002022
:100B20000090009009E00098225C01466DA004F05E
:100B30003FFD0098401CC0B200900098B042F2DB2C
:100B40006BA004F035FD07E060790002A17908434D
:100B5000B04201DD0420FEBD31462046FFF77CFF98
:100B60000190701E215C0198814201D00220F2E7C1
:100B70002078242801D00320EDE7042260A1601C26
:100B8000FFF7E9FA00280CD100F0DEF80546002056
:100B900003E0295C2170641C401CA9798142F8DCC7
:100BA00097E0042258A1601CFFF7D5FA00280CD169
:100BB00000F0FEF80546002003E0295C2170641C6B
:100BC000401CA9798142F8DC83E0042250A1601C1A
:100BD000FFF7C1FA002813D1E079012802D0E079AB
:100BE000022876D1E07900F029F90546002003E0DB
:100BF000295C2170641C401CA9798142F8DC68E002
:100C0000042245A1601CFFF7A6FA002813D1E07961
:100C1000012802D0E07902285BD1E079FFF742FF9A
:100C20000546002003E0295C2170641C401CA97962
:100C30008142F8DC4DE0042239A1601CFFF78BFAF9
:100C4000002813D1E079012802D0E079022840D1B0
:100C5000E07900F0B9F80546002003E0295C217036
:100C6000641C401CA9798142F8DC32E004222EA1E8
:100C7000601CFFF770FA002813D1E079012802D038
:100C8000E079022825D1204600F0EAF80546002048
:100C900003E0295C2170641C401CA9798142F8DCC6
:100CA00017E0042222A1601CFFF755FA00280ED19C
:100CB0002046FFF7DFFE0546002003E0295C217097
:100CC000641C401CA9798142F8DC012043E705201F
:100CD00041E700203FE7000072656376206461749D
:100CE000613A00006275665B25645D3D2558200011
:100CF0000D0A000073706C697420646174613A00BD
:100D00004358534200000000484541540000000091
:100D1000444B4C440000000047424C44000000009B
:100D200043584C4400000000535A4C44000000005B
:100D3000584749500000000010B50446204604F012
:100D4000DBFEFFF7DBFC10BD1FB502A803F01CF8AB
:100D5000684603F061F8052102A805F03FF9052176
:100D6000684605F03BF96846007A10498872684683
:100D7000407A48726846807A08726846C07AC871BC
:100D8000684600788873684640784873684680787B
:100D900008736846C078C87210210448FFF75CFEEB
:100DA0000249C873084604B010BD000000000020CE
:100DB00000B508210348FFF74FFE0249C8710846F5
:100DC00000BD00001000002010B504460948C471A1
:100DD000204603F089F807490872204603F072F8AC
:100DE000044948720B210348FFF736FE0149887217
:100DF000084610BD340000207CB504460D4605228F
:100E000029466846FFF795F90B48C4716846407853
:100E1000094908726846807848726846C0788872C6
:100E200068460079C8720E210348FFF715FE024993
:100E3000487308467CBD0000B600002010B504468B
:100E40000648C472204603F061F80E210348FFF7FC
:100E500003FE02494873084610BD00001800002038
:100E600070B50446E679207A45B2062D0DDA002DDC
:100E70000BDD10494D72E9B2304603F07BF8E079A2
:100E80000C49093102F0F2FF04E021463046FFF739
:100E9000B3FF70BDE0790749C871304603F024F80C
:100EA000044908720B210348FFF7D6FD01498872F7
:100EB0000846EEE73F000020F7B58AB004460D462D
:100EC0000026002009900890A100491CC9000322B7
:100ED0001202881804F048FA002879D0132878D034
:100EE000172802D01C2875D1A9E0A100491CC9000F
:100EF000C81DFF30FA3004F037FAC007C00F0028D1
:100F000044D0A100491CC90003229202881804227F
:100F100007A904F06DFAA100491CC90001221203BF
:100F2000881804F021FA0702A100491CC900012217
:100F300012038918C81DF93004F016FA381880B267
:100F400006906946CA7F897F0698019200910290B7
:100F50006846437F027F21465CA004F029FBA10084
:100F6000491CC900C81DFF30FA30012104F090FA75
:100F7000A0210491012204A9204605F021F946B2DE
:100F8000002E02DA204604F0B7FD00BF204604F030
:100F900029FF0990002851DD0998402801DD4020F3
:100FA000099029462046099A05F030F846B2002EED
:100FB00002DC30460DB0F0BD28460999FFF784FDEC
:100FC000C0B208904AA0089904F0F2FA089802E02A
:100FD00054E045E075E0030004F02BFB06040B171A
:100FE0001B1F2327AA792946204605F0E9F846B2B7
:100FF0001CE0AA792946204605F0E2F846B22046D0
:1010000004F07AFDFFF77AFB10E03FA004F0D0FA7D
:101010000CE040A004F0CCFA08E042A004F0C8FACA
:1010200004E042A004F0C4FA00E000BF00BF002EBC
:1010300004DA204604F060FD3046BBE742E021467A
:101040003DA004F0B5FA204604F056FE06460128FD
:1010500001D03046AEE721463BA004F0A9FA31E0CA
:1010600021463EA00C9A04F0A3FA204604F028FF83
:101070000646012801D030469CE723E0214643A0E4
:1010800004F096FA0023012120460C9A05F016FA86
:101090000646A04201D030468CE70120059005AA03
:1010A0000721204605F048F90646012804D02046CD
:1010B00004F022FD30467DE721463CA004F078FA9A
:1010C00000E000BF00BF012074E7000025643A4340
:1010D0006F6E6E6563746564202D2025642E256413
:1010E0002E25642E2564203A2025640D0A00000078
:1010F0006465616C5F646174615F72657475726E62
:101100003D25640D0A000000D0A3D1E9B4EDCEF373
:101110000D0A0000BFAACABCB1EAD6BEB4EDCEF338
:101120000D0A0000B6AAB0FC0D0A0000CEB4D6AA83
:10113000C3FCC1EE0D0A000025643A436C6F736571
:10114000576169740D0A000025643A536F636B653B
:101150007420436C6F7365640D0A000025643A4C7B
:10116000697374656E2C20544350207365727665E4
:1011700072200909096C6F6F706261636B2C2070BB
:101180006F7274205B25645D0D0A000025643A547B
:10119000435020736572766572206C6F6F70626168
:1011A000636B2073746172740D0A000025643A53F6
:1011B0006F636B6574206F70656E65640D0A000067
:1011C00010B5402000F048FA10BDFFF727FCFFF7EC
:1011D0002FFC00BFFEE7000000200749C861074858
:1011E0000069042108430549086108460069402157
:1011F000084302490861704718040020002002409B
:101200000021084AD1610849096902221143064AAE
:10121000116111464861096940221143024A116176
:101220007047000018040020002002400022054BF7
:10123000DA61054A126901231A43034B1A610180DE
:1012400070470000180400200020024000200F49D1
:10125000C96810221140102907D10D49C96902221D
:1012600011430B4AD161102108430849C96804227F
:101270001140042907D10649C96901221143044AD2
:10128000D161042108430149C86070470020024031
:101290001804002070B5044600F0FAFA05460BE089
:1012A000601C002808D0002C04D000F0F1FA401B8C
:1012B000A04201D9032070BD0F48C068C007C00F0D
:1012C0000028EDD10C48C06820210840202801D119
:1012D0000949C8600848C06810210840102805D096
:1012E0000548C06804210840042803D1FFF7AEFF79
:1012F0000120E0E70020DEE70020024008B50020E2
:10130000009000F07FF96946054800F0BDF800281C
:1013100003D001E0FFF78CFBFCE700F00BF908BD00
:10132000C0020020002003490860034848600120F3
:1013300088607047C002002000FC000808B5014624
:101340000020009008680090009808BD70B5054620
:101350000C46224600232946022000F0F5F800281A
:1013600003D001E0FFF764FBFCE770BD1FB5234825
:1013700023490860002048600021214881602149FC
:10138000C16000210161816101F0B6FE002801D039
:10139000FFF71BFF03211A4801F07EFD0022012107
:1013A0004906104600F03EFC00200090012001900C
:1013B0000C2002900020039000226946104801F0A2
:1013C00001FE002801D0FFF700FF00210C4801F0CA
:1013D000DDFE002801D0FFF7F8FE00BF0A480068D4
:1013E0000228FBD10021064801F008FF044801F063
:1013F0005BFE0648006804B010BD000000200040FD
:10140000D8030020FFFF000034010020300100203D
:1014100070B5044600252120005D022803D0042079
:10142000A06301251EE0206800680E218843216822
:1014300008602068006840084000216808600120BA
:10144000216C8840E16B486001212120015500BFDB
:1014500000212020015500BF606B002802D02046EB
:10146000616B8847284670BD31B500F011FA05461A
:10147000009C601C002800D0641C00BF00F008FA2B
:10148000401BA042FAD338BDF8B504460E460127EA
:10149000002500BF2448007E012801D10220F8BDAC
:1014A00001202149087600BF2068012811D11F487A
:1014B000FFF7F0FE002830D1FFF78EFE1B48FFF744
:1014C000E9FE07461A480069042188431849086163
:1014D00023E01648FFF7DEFE00281ED1401E3060D4
:1014E000656813E02846FFF78BFE1048FFF7D2FE31
:1014F00007460F480069022188430D490861002F03
:1015000001D0356008E0012080022D18A06880021B
:1015100061684018A842E5D800BF00BF002002491A
:10152000087600BF3846BAE71804002050C3000010
:1015300000200240034800698021084301490861F6
:101540000020704700200240F0B51FB486B0074667
:1015500015461E460120039000240020029000BF83
:101560002548007E012802D102200BB0F0BD0120E9
:101570002149087600BF2148FFF78CFE03900398AD
:10158000002831D1012F02D10120029006E0022F64
:1015900002D10220029001E00420029000241FE00A
:1015A00022012846314604960595FEF7B1FD80B22A
:1015B000610001900798081800900199FFF736FE26
:1015C0000E48FFF767FE03900D4800694008400091
:1015D0000B4908610398002800D004E0601CC4B2E5
:1015E00002988442DCDB00BF00BF0020024908767D
:1015F00000BF0398B9E700001804002050C30000A2
:10160000002002400748006980210840002805D0DA
:101610000548044948600548486001E001207047DA
:101620000020FCE70020024023016745AB89EFCD95
:1016300010B50446402C0BD140210920C00600F013
:1016400013F9002801D1012000E0002001490870B1
:1016500010BD00002B01002010B50446054840696C
:101660002040002804D0034844612046FFF7E0FFF3
:1016700010BD00000004014078B50346002200249C
:101680000020DEE0012696400D6835402C46002CF7
:101690007ED04D68022D02D04D68122D15D1D5088F
:1016A000AE001D462035A8595507EE0E0F25B54052
:1016B0000646AE4330465607F60E0D69B540284340
:1016C000D508AD001E462036705118685600032517
:1016D000B5400646AE4330460D79AD07AD0F560016
:1016E000B540284318604D68012D08D04D68022D83
:1016F00005D04D68112D02D04D68122D18D1986873
:1017000056000325B5400646AE4330465600CD6828
:10171000B540284398605868012595400646AE4379
:10172000304610264D6835402D09954028435860B5
:10173000D86856000325B5400646AE4330465600ED
:101740008D68B5402843D860012636074D6835407E
:10175000B54275D100BF3E4DAD69012635433C4EC3
:10176000B5613546AD69ED07ED0F009500BF00BFCF
:10177000384D9608B600A85995072E0F0F25B5408D
:101780000646AE4330460925ED06AB4203D100E0E4
:1017900056E000250FE0304DAB4201D101250AE0B3
:1017A0002E4DAB4201D1022505E02D4DAB4201D1BA
:1017B000032500E005259607360FB5402843254D43
:1017C0009608B600A851274D28680546A543284627
:1017D000012636044D683540B54202D10546254301
:1017E0002846204D286068680546A54328460126FE
:1017F00076044D683540B54202D10546254328465A
:10180000184D6860A8680546A54328460126360598
:101810004D683540B54202D1054625432846114D55
:10182000A860E8680546A5432846012676054D6868
:101830003540B54202D1054625432846094DE860AA
:10184000521C0D68D540002D00D01BE778BD00006C
:101850000010024008000140000400480008004851
:10186000000C004800040140024613690B40002BA5
:1018700001D0012000E00020704742694A404261E7
:101880007047002A01D0816100E08162704700004A
:1018900001480068704700003C01002070B5044614
:1018A000002C01D1012070BD144821680860144843
:1018B000216808602168606848602168A0688860C5
:1018C000FFF7E6FF054606E0FFF7E2FF401B27288B
:1018D00001D90320E7E72068C0680028F4D1206818
:1018E0000169E068814203D02168E068086102E094
:1018F0000448216808600020D5E70000CCCC000037
:1019000055550000AAAA0000014602480A68106066
:1019100000207047AAAA000002480068401C014944
:10192000086070473C01002010B50648006810218F
:10193000084304490860032000F006F800F017F897
:10194000002010BD0020024070B5044600F0F0F801
:1019500006467D21C900FEF7C5FB054601F07EFA6B
:1019600000222146501E00F00FF8002070BD704785
:1019700000BFC206D20E01219140024A116000BF91
:101980007047000000E100E070B504460D461646C1
:101990002946204602F066FB70BD000070B5044683
:1019A0000D4600265D480068C007C00FA8420ED251
:1019B0005A480068400840002843584908600846D3
:1019C0000068C007C00FA84201D0012070BD0221ED
:1019D00020680840022807D151484068F021884318
:1019E000A16808434E4948602078C007C00F00280E
:1019F0005FD06068012808D1494800680121490486
:101A00000840002815D10120E0E76068022808D1CD
:101A100043480068012149060840002809D10120F7
:101A2000D4E73F48006802210840002801D1012086
:101A3000CCE73B484068800880006168084338492B
:101A40004860FFF725FF0646606801280FD107E0D0
:101A5000FFF71EFF801B3349884201D90320B5E7F9
:101A60002F4840680C2108400428F1D121E060682B
:101A700002280FD107E0FFF70BFF801B294988429E
:101A800001D90320A2E7264840680C210840082815
:101A9000F1D10EE007E0FFF7FBFE801B21498842F1
:101AA00001D9032092E71E4840680C210840002815
:101AB000F1D11A480068C007C00FA8420ED91748D4
:101AC0000068400840002843144908600846006840
:101AD000C007C00FA84201D0012077E70421206889
:101AE0000840042808D10E484068072109028843AD
:101AF000E16808430A49486000F032F8084949683B
:101B0000F02211400909084A515CC84007490860A1
:101B10000320FFF719FF002058E7000000200240D3
:101B20000010024088130000366C000840010020BD
:101B300001480068704700004001002000B5FFF731
:101B4000F7FF05494968072212021140090A034AB2
:101B5000515CC84000BD000000100240466C000807
:101B6000F0B589B024A001460EC9C06805AC0EC40A
:101B7000089025A001460EC9C06801AC0EC40490AF
:101B800000240027002500260020009022484468F9
:101B90000C202040002827D0042802D0082822D179
:101BA00002E01E48009022E00F2080042040800CBC
:101BB00005A90E5C1848C06A0007000F01A90F5C58
:101BC00001200004204001210904884206D1394641
:101BD0001248FEF787FA7043054602E01048354682
:101BE0004543009503E000BF0C48009000BF00BFD4
:101BF000009809B0F0BD00000203040506070809BB
:101C00000A0B0C0D0E0F1010010203040506070845
:101C1000090A0B0C0D0E0F100010024000127A0082
:101C200000093D0070B586B005460C4616460220F8
:101C300002900320049000200390FF2001300190C7
:101C40000020059000BF0F48406901214904084366
:101C50000C49486108464069012149040840009048
:101C600000BF00BF01A90920C006FFF705FD054818
:101C700040680F210906884320430249486006B0A6
:101C800070BD000000100240F8B504460025207821
:101C9000C007C00F002871D0F94840680C210840E7
:101CA00004280BD0F64840680840082812D1F448B0
:101CB000406801210904084088420BD1F0480068BF
:101CC00001214904084000286BD06068002868D1D1
:101CD0000120F8BD00BF6068012807D1E84800680E
:101CE000012109040843E649086031E060680028E2
:101CF0000ED1E3480068012109048843E0490860E7
:101D000008460068012189048843DD4908601FE016
:101D1000606805280ED1DA4800680121890408436B
:101D2000D749086008460068012109040843D449DE
:101D300008600DE0D2480068012109048843D049B9
:101D4000086008460068012189048843CC4908607E
:101D500000BF6068002812D0FFF79AFD054606E034
:101D6000FFF796FD401B642801D90320B1E7C44862
:101D700000680121490408400028F1D011E0FFF774
:101D800087FD054606E0FFF783FD401B642801D967
:101D900003209EE7BA480068012149040840002852
:101DA000F1D1022120680840022861D1B44840687E
:101DB0000C21084000280BD0B14840680840082892
:101DC0001BD1AF484068012109040840002814D104
:101DD000AB48006802210840002804D0E0680128D0
:101DE00001D0012075E7A6480068F82188432169E1
:101DF000C9000843A24908603AE0E068002820D002
:101E00009F480068012108439D490860FFF740FD95
:101E1000054606E0FFF73CFD401B022801D90320E0
:101E200057E797480068022108400028F2D09448FC
:101E30000068F82188432169C90008439049086077
:101E400016E08F480068400840008D490860FFF7A1
:101E50001FFD054606E0FFF71BFD401B022801D9C8
:101E6000032036E786480068022108400028F2D1A6
:101E7000082120680840082831D1E069002817D0DF
:101E80007F48406A012108437D494862FFF700FD11
:101E9000054606E0FFF7FCFC401B022801D90320A1
:101EA00017E77748406A022108400028F2D016E080
:101EB0007348406A4008400071494862FFF7E8FCF7
:101EC000054606E0FFF7E4FC401B022801D9032089
:101ED000FFE66B48406A022108400028F2D1042145
:101EE00020680840042871D100266548C069890629
:101EF000084000280DD100BF6148C069084360490F
:101F0000C8610846C06909040840009000BF00BFCE
:101F100001265C480068FF2101310840002816D1E5
:101F200058480068084357490860FFF7B1FC054668
:101F300006E0FFF7ADFC401B642801D90320C8E68A
:101F400050480068FF21013108400028F1D000BF4F
:101F5000A068012806D14A48006A0121084348497F
:101F600008622BE0A06800280CD14548006A4008B0
:101F70004000434908620846006A042188434049FA
:101F800008621BE0A06805280CD13D48006A0421C6
:101F900008433B4908620846006A01210843384962
:101FA00008620BE03648006A400840003449086285
:101FB0000846006A042188433149086200BFA068CE
:101FC000002813D0FFF764FC054608E029E0FFF77E
:101FD0005FFC401B2C49884201D9032079E6284840
:101FE000006A022108400028F1D011E0FFF750FC00
:101FF000054607E0FFF74CFC401B2349884201D906
:10200000032066E61E48006A022108400028F1D13C
:10201000012E05D11A48C069310788431849C861A3
:1020200000BF10212068084010285FD16069012896
:102030002CD11348406B04210843114948630846DA
:10204000406B012108430E494863FFF721FC054618
:1020500006E0FFF71DFC401B022801D9032038E6EB
:102060000748406B022108400028F2D00448406B2A
:10207000F8218843A169C90008430149486335E054
:102080000010024000700040881300006069401D8D
:1020900000280FD14E48406B042188434C494863C7
:1020A0000846406BF8218843A169C90008434849A4
:1020B00048631BE04648406B042108434449486399
:1020C0000846406B400840004863FFF7E1FB0546C7
:1020D00006E0FFF7DDFB401B022801D90320F8E5ED
:1020E0003B48406B022108400028F2D1206A0028BA
:1020F0006CD0374840680C210840082864D0206A1A
:10210000022847D132480068012109068843304936
:102110000860FFF7BDFB054606E0FFF7B9FB401B73
:10212000022801D90320D4E5294800680121490685
:1021300008400028F1D100BF2548C06A000900010D
:10214000E16A08432249C862616AA06A08432049DB
:1021500049683D221204914308431D49486000BF6D
:102160000846006801210906084319490860FFF77D
:102170008FFB054606E0FFF78BFB401B022801D9C9
:102180000320A6E5124800680121490608400028FE
:10219000F1D01BE00E4800680121090688430C4974
:1021A0000860FFF775FB054606E0FFF771FB401B73
:1021B000022801D903208CE5054800680121490661
:1021C00008400028F1D101E0012082E5002080E5EF
:1021D000001002400221014A11607047E80000200F
:1021E000F8B5044620684668206885684020284085
:1021F00000280BD1E807C00F002807D0402030404E
:10220000002803D02046E16C8847F8BD0220284012
:10221000002807D080203040002803D02046216DC0
:102220008847F2E7FF206130284000287FD0202037
:10223000304000287BD04020284000281ED05D2060
:10224000005D03280ED0206E04210843206600BFE5
:10225000002000902068C06800902068806800908E
:1022600000BF0BE000BF002000902068C068009015
:1022700020688068009000BF00BFC6E7202028408B
:10228000002811D0206E01210843206600BF0020E5
:102290000090206880680090206800684021884392
:1022A0002168086000BF00BFFF20013028400028DF
:1022B0000BD0206E08210843206600BF002000904C
:1022C00020688068009000BF00BF206E00282DD0DD
:1022D00020684068E02188432168486001215D2032
:1022E000015502203040002803D1F007C00F00281C
:1022F00019D0206840688008800021684860A06D7F
:10230000002805D00B48A16D4863A06DFFF780F849
:10231000606D00280AD00748616D4863606DFFF763
:1023200077F803E003E02046FFF754FF6DE700BFB6
:102330006BE700003F45000870B50446002C01D152
:10234000012070BD606A002800D100BF012149034F
:10235000A06A884200D100BF5D20005D002805D141
:1023600000215C200155204600F06CF802215D2020
:1023700001552068006840218843216808600721D2
:102380000902E068884201D9002501E001252D03FA
:102390000F210902E068884206D007210902E0689F
:1023A000884201D00021A162206B002809D10721B9
:1023B0000902E068884202D90221216301E001217B
:1023C0002163A16860680843216908436169084383
:1023D00001225202A16911400843E1690843216AC0
:1023E0000843A16A084321680860206B022805D1D0
:1023F000206800689100084321680860A069000C0B
:1024000004210840616A0843616B0843E16808439E
:1024100028432168486001214903A06A884202D10B
:102420002168E06A08612068C0690121C902884307
:102430002168C8610020206601215D20015500202F
:102440007FE7000010B586B004463C49206888420A
:1024500072D100BF3A484069012149040843384914
:10246000486108464069012149040840009000BFC6
:1024700000BF00BF32484069490008433049486105
:1024800008464069012189040840009000BF00BF50
:1024900000BF2B4840690843294948610846406904
:1024A000012189040840009000BF00BF00BF2448FC
:1024B000406908432249486108464069012189046E
:1024C0000840009000BF00BF00BF1D48806989110F
:1024D00008431B49886108468069891408400090B8
:1024E00000BF00BFC80001900120029000200390AF
:1024F0000320049001A90920C006FFF7BDF80820B9
:102500000190022002900390032004900020059087
:1025100001A90C48FFF7B0F81020019000200590A9
:1025200001A90848FFF7A8F8202001900020059095
:1025300001A90448FFF7A0F806B010BD0030014023
:102540000010024000040048F0B585B004460D4676
:1025500017461E46002003900290019007210902B1
:10256000E068884201D8012F00D900BFFF21053162
:10257000606888420ED1A06800280BD104215D203C
:1025800001553B462A4629462046009600F058FA57
:1025900005B0F0BD00BF5C20005D012801D1022024
:1025A000F6E701215C20015500BFFFF771F90290A9
:1025B0005D20005D012802D00220019026E1002D5F
:1025C00001D0002F02D1012001901FE104215D20E4
:1025D00001550020206625644420075346200753F8
:1025E0000020A063A087E087E0642065C902A06A9C
:1025F000884213D100BF20680068884321680860C2
:10260000206800680121490308432168086000BF71
:102610004620005B401E81B246200153072109027B
:10262000E068884207D9206840680121090388438F
:102630002168486006E020684068012109030843DA
:10264000216848600121C903A068884205D120683B
:1026500000684910884321680860206800684021AC
:102660000840402804D020680068084321680860BA
:1026700007210902E068884224D81EE020688068AB
:10268000C007C00F00280AD02068007B28706D1C8E
:102690004620005B401E81B2462001530DE0002E13
:1026A00008D0701C002808D0FFF7F2F80299401AF1
:1026B000B04202D303200190A8E04620005B00282E
:1026C000DCD123E01EE020688068C007C00F00282E
:1026D0000AD02068C0682880AD1C4620005B401EE0
:1026E00081B2462001530DE0002E08D0701C002856
:1026F00008D0FFF7CDF80299401AB04202D3032068
:10270000019083E04620005B0028DCD101214903D1
:10271000A06A88425ED12068006849100843216899
:10272000086002983346012211460090204602F0CC
:1027300051F8002802D00320019067E00721090228
:10274000E068884203D92068C068288002E02068D9
:10275000007B2870029833460122114600902046E3
:1027600002F038F8002806D0206E022108432066C7
:10277000032001904AE00F210902E068884206D157
:102780002068C06881B203916846808922E0206891
:10279000017B03916846808907210902E06888422D
:1027A00018D1206B022815D1029833460122114618
:1027B0000090204602F00EF8002806D0206E02217C
:1027C000084320660320019020E02068017B0391EC
:1027D0006846808931462046029A01F0BCFE0028F6
:1027E00001D0202020662068806810210840102831
:1027F00006D1206E022108432066094821688860BE
:10280000206E002801D00120019000BF01215D2031
:10281000015500BF00215C20015500BF0198B7E6BB
:10282000EFFF0000FEB504460D4617461E46002089
:102830000290019007210902E068884201D8012F27
:1028400000D900BF00BF5C20005D012801D102203B
:10285000FEBD01215C20015500BFFFF719F8029071
:102860005D20005D012802D002200190DDE0002DF6
:1028700001D0002F02D101200190D6E003215D207C
:10288000015500202066A563A787E7872064002103
:10289000442001534620015300202065E0640121BB
:1028A000C903A068884205D1206800684910084320
:1028B0002168086001214903A06A88420DD100BF48
:1028C000206800688843216808602068006801214A
:1028D000490308432168086000BF20680068402160
:1028E0000840402804D02068006808432168086038
:1028F00007210902E06888422DD96068002802D0CB
:10290000E08F012806D128882168C860AD1CE08FBF
:10291000401EE0871BE020688068022108400228F2
:1029200007D128882168C860AD1CE08F401EE08771
:102930000DE0002E08D0701C002808D0FEF7A8FF7C
:102940000299401AB04202D3032001906DE0E08F5B
:102950000028E0D142E06068002802D0E08F012822
:1029600011D1E08F012807D928882168C860AD1CE3
:10297000E08F801EE08706E02878216808736D1CD0
:10298000E08F401EE08726E0206880680221084032
:10299000022812D1E08F012807D928882168C86051
:1029A000AD1CE08F801EE08715E028782168087351
:1029B0006D1CE08F401EE0870DE0002E08D0701CDB
:1029C000002808D0FEF764FF0299401AB04202D3F3
:1029D0000320019029E0E08F0028D5D1012149038F
:1029E000A06A884205D12068006849100843216820
:1029F000086031462046029A01F0F4FD002801D01B
:102A000020202066A068002809D100BF009020681F
:102A1000C068009020688068009000BF00BF206EF2
:102A2000002801D00120019000BF01215D20015547
:102A300000BF00215C20015500BF019808E700009D
:102A4000F0B587B004460D4616461F460020069096
:102A5000059004900390012002900020019007212E
:102A60000902E068884201D8012F00D900BF00BFE9
:102A70005C20005D012802D1022007B0F0BD0121D9
:102A80005C20015500BFFEF703FF03905D20005D51
:102A9000069060680590069801280DD0FF21053149
:102AA0000598884205D1A068002802D1069804281C
:102AB00002D002200190C5E1002D03D0002E01D0EC
:102AC000002F02D101200190BCE15D20005D0428AF
:102AD00002D005215D200155002020662664462095
:102AE000075344200753A563E787A7870020E064C6
:102AF000206501214903A06A88420DD100BF2068EA
:102B00000068884321680860206800680121490343
:102B100008432168086000BF07210902E068884275
:102B200003D84620005B012807D9206840680121AE
:102B3000090388432168486006E020684068012155
:102B40000903084321684860206800684021084064
:102B5000402804D0206800680843216808600721E5
:102B60000902E068884270D96068002802D0E08FCE
:102B7000012806D128882168C860AD1CE08F401E5E
:102B8000E08759E00298002832D0E08F00282FD04B
:102B90002068806802210840022829D128882168FD
:102BA000C860AD1CE08F401EE08700200290E08FDF
:102BB00000281DD101214903A06A884218D120684C
:102BC00000680421084000280BD1206840680821D3
:102BD0000840082805D12068006889010843216859
:102BE0000860206800680121090308432168086023
:102BF0004620005B002811D020688068C007C00F05
:102C000000280BD02068C0683080B61C4620005BCE
:102C1000401E81B246200153012002900C98401CB6
:102C2000002809D0FEF734FE0399411A0C9881421E
:102C300002D30320019005E1E08F0028A2D14620B5
:102C4000005B00289ED19FE0FFE76068002802D06B
:102C5000E08F012811D1E08F012807D92888216849
:102C6000C860AD1CE08F801EE08706E028782168F0
:102C700008736D1CE08F401EE0877DE002980028FD
:102C80003DD0E08F00283AD02068806802210840BB
:102C9000022834D1E08F012807D928882168C8602C
:102CA000AD1CE08F801EE08706E02878216808735D
:102CB0006D1CE08F401EE08700200290E08F00280E
:102CC0001DD101214903A06A884218D120680068FB
:102CD0000421084000280BD12068406808210840E2
:102CE000082805D120680068890108432168086028
:102CF0002068006801210903084321680860462014
:102D0000005B00282AD020688068C007C00F002818
:102D100024D04620005B012814D92068C068308088
:102D2000B61C4620005B801E81B246200153005B2A
:102D3000012811D82068406801210903084321684F
:102D4000486009E02068007B3070761C4620005BFC
:102D5000401E81B246200153012002900C98401C75
:102D6000002809D0FEF794FD0399411A0C9881427E
:102D700002D30320019065E0E08F002800D07DE7BA
:102D80004620005B0028FAD101214903A06A88424D
:102D90003AD1039800900122114620460C9B01F085
:102DA00019FD002806D0206E02210843206603206A
:102DB000019047E00F210902E068884206D12068AF
:102DC000C06881B204916846008A1DE02068017BDA
:102DD00004916846008A206B022815D10398009060
:102DE0000122114620460C9B01F0F4FC002806D07D
:102DF000206E0221084320660320019022E0206813
:102E0000017B04916846008A206880681021084090
:102E1000102808D1206E0221084320660E48216840
:102E20008860012001902046039A0C9901F0DAFB9A
:102E3000002801D020202066206E002801D001202B
:102E4000019000BF01215D20015500BF00215C20E1
:102E5000015500BF019810E6EFFF000070B5044671
:102E60002546681E0949884201D901200CE0681EE8
:102E7000074948610321081F01F0F4F800200449C4
:102E8000886107200861002070BD0000FFFFFF007F
:102E900000E000E070477047024600BF3C20805CC5
:102EA000012801D10220704701233C20835400BF38
:102EB000106801653D20835400BF00233C208354EB
:102EC00000BF0020EFE710B50446002C01D101201F
:102ED00010BD3D20005D002805D100213C2001559A
:102EE000204600F00DF802213D200155211D2068EB
:102EF00001F038FD01213D2001550020E8E70000E8
:102F000038B5044600BF0C48806901210904084314
:102F10000949886108468069012109040840009038
:102F200000BF00BF002203211420FEF72DFD142056
:102F3000FEF71EFD38BD0000001002400146086883
:102F4000C068012210430A68D06008680068012246
:102F500010430A68106000207047000070B50646F4
:102F600000250021124800F0A3FB81B2114804683B
:102F7000601C104A106060000F4A11520D48006832
:102F8000022813D310460088691E081A1146498882
:102F90004018401C85B2294608480068FDF7A2F891
:102FA0000749086008460068C000086070BD00005E
:102FB000D8030020340100202C0100204001002013
:102FC00030010020F8B504460D46164600BF3C20EF
:102FD000005D012801D10220F8BD01213C200155EE
:102FE00000BF02213D200155002E12D1EB686A6816
:102FF0002968206801F078FE206880690C218843E8
:103000002168886120688069A9680843216888610F
:103010003FE0042E14D1EB686A682968206801F04B
:103020009BFE2068806903218902884321688861AA
:1030300020688069A968090208432168886128E03E
:10304000082E12D1EB686A682968206801F0AAFE90
:103050002068C0690C2188432168C8612068C06964
:10306000A96808432168C86113E0EB686A682968A9
:10307000206801F0BCFE2068C069032189028843F2
:103080002168C8612068C069A968090208432168ED
:10309000C86101213D20015500BF00213C200155A0
:1030A00000BF002098E7000010B5044602213D2033
:1030B000015500BF2068006A0E49084000280BD166
:1030C0002068006A89100840002805D1206800683F
:1030D000400840002168086000BF204600F028F842
:1030E00000213D20015500BF3C20015500BF0020BC
:1030F00010BD00001111000010B50446002C01D1D4
:10310000012010BD3D20005D002805D100213C209C
:103110000155204600F00EF802213D200155211DE9
:10312000206801F01FFC01213D2001550020E8E747
:103130007047000010B58EB00446082002900020B1
:103140000A900120099002A8FEF79EFD002801D0F8
:10315000FEF73BF800BF0C48C069FF21013108436E
:103160000949C8610846C06989150840019000BF37
:1031700000BF002211461320FEF706FC1320FEF7C5
:10318000F7FB0EB010BD00000010024030B5044641
:103190000D46002D06D0042D0BD0082D10D00C2D7F
:1031A0001CD114E02068C068022108432168C8606F
:1031B00015E02068C068042108432168C8600EE05B
:1031C0002068C068082108432168C86007E02068BB
:1031D000C068102108432168C86000E000BF00BF3C
:1031E00001222946206801F00DFC206800680121B9
:1031F000084321680860002030BD000030B5044657
:103200000D46002D06D0042D0BD0082D10D00C2D0E
:103210001CD114E02068C068022188432168C8607E
:1032200015E02068C068042188432168C8600EE06A
:103230002068C068082188432168C86007E02068CA
:10324000C068102188432168C86000E000BF00BF4B
:1032500000222946206801F0D5FB00BF2068006AE3
:103260000949084000280BD12068006A89100840ED
:10327000002805D1206800684008400021680860E7
:1032800000BF002030BD00001111000010B5044641
:103290002068006902210840400800281CD02068EE
:1032A000C06808404008002816D0481F21680861FF
:1032B00001202077206880698007800F002803D0D4
:1032C0002046FFF74BFE05E0204600F0C3F82046FD
:1032D00000F0A2F90020207720680069042108404E
:1032E000800800281DD02068C06808408008002899
:1032F00017D0C843216808610220207720688069C0
:10330000032109020840002803D02046FFF726FECB
:1033100005E0204600F09EF8204600F07DF90020F0
:1033200020772068006908210840C00800281CD0C8
:103330002068C0680840C008002816D0C84321682B
:103340000861042020772068C0698007800F00286A
:1033500003D02046FFF702FE05E0204600F07AF891
:10336000204600F059F900202077206800691021DC
:103370000840000900281DD02068C06808400009E6
:10338000002817D0C84321680861082020772068EA
:10339000C069032109020840002803D02046FFF736
:1033A000DDFD05E0204600F055F8204600F034F938
:1033B0000020207720680069C007C00F0121484025
:1033C000484000280CD02068C06808404840484069
:1033D000002805D0C81E21680861204600F052F977
:1033E0002068006980210840C00900280BD02068AF
:1033F000C0680840C009002805D0C843216808619A
:103400002046FFF747FD20680069402108408009F9
:1034100000280BD02068C06808408009002805D02B
:10342000C84321680861204600F06EF920680069F1
:1034300020210840400900280BD02068C0680840BF
:103440004009002805D0C843216808612046FFF7DD
:1034500022FD10BD704770B504460D46164600BFEC
:103460003C20005D012801D1022070BD01213C20DB
:10347000015500BF02213D200155002E06D0042E2B
:103480001BD0082E33D00C2E62D147E0294620688D
:1034900001F0C6FA20688069082108432168886124
:1034A00020688069042188432168886120688069D8
:1034B00029690843216888614BE02946206801F0AA
:1034C00009FB206880690121C902084321688861DD
:1034D0002068806901218902884321688861206809
:1034E00080692969090208432168886131E0294619
:1034F000206801F053FB2068C06908210843216857
:10350000C8612068C069042188432168C8612068B7
:10351000C069296908432168C8611AE02946206802
:1035200001F09EFB2068C0690121C902084321689F
:10353000C8612068C0690121890288432168C86187
:103540002068C0692969090208432168C86100E050
:1035500000BF00BF01213D20015500BF00213C20DC
:10356000015500BF002080E710B50446002C01D1B2
:10357000012010BD3D20005D002805D100213C2028
:103580000155204600F00CF802213D200155211D77
:10359000206801F0E7F901213D2001550020E8E70E
:1035A00010B586B0044600BF1A48C069022108431E
:1035B0001849C8610846C06902210840009000BF50
:1035C00000BF00BF1348406909040843114948611E
:1035D00008464069012149040840009000BF00BF2F
:1035E0000220029001200390032004900120059006
:1035F0004020019001A90920C006FEF73DF80120F6
:1036000005908020019001A90920C006FEF734F83A
:1036100006B010BD001002407047000030B50446EF
:103620000D4601222946206801F0ECF91149206875
:1036300088420BD010492068884207D00F49206883
:10364000884203D00E492068884201D1012000E061
:103650000020002806D02068406C0121C9030843DF
:1036600021684864206800680121084321680860D7
:10367000002030BD002C01400040014000440140CA
:103680000048014010B50446084801680068401C25
:10369000064A10607D20C000814204D100201146FE
:1036A0000860FDF7CFF900F019FD10BDE000002023
:1036B00010B50246002300BF3C20805C012801D1E8
:1036C000022010BD01243C20845400BF002906D0F4
:1036D000042907D0082908D00C290CD108E010686B
:1036E000436B09E01068836B06E01068C36B03E06E
:1036F0001068036C00E000BF00BF00BF00243C2046
:10370000845400BF1846DCE77047000010B504463B
:103710000D492068884202D1FDF757FD13E00B499F
:10372000206888420FD120680068FF21213188433A
:10373000216808602068806840084000216888602F
:1037400020216A20015510BD00440040003801408E
:10375000F8B504462068C569206806682807000F88
:103760000090009800280BD120202840002807D086
:1037700020203040002803D0204601F03FFCF8BD57
:1037800020688768009800287ED0F807C00F0028BE
:1037900004D1FF20213030400028F5D0E807C00FC9
:1037A00000280BD0FF2001303040002806D0012037
:1037B00021680862E06E01210843E066022028408B
:1037C00000280AD0F807C00F002806D00220216880
:1037D0000862E06E04210843E066042028400028C7
:1037E0000AD0F807C00F002806D00420216808621C
:1037F000E06E02210843E0660820284000280ED031
:1038000020203040002803D1F807C00F002806D040
:10381000082021680862E06E08210843E066E06E37
:10382000002841D020202840002806D02020304009
:10383000002802D0204601F0E1FBE06E082108409C
:10384000002805D12068806840210840002826D043
:10385000204601F0B2FB2068806840210840002823
:1038600019D020688068884321688860606E0028CD
:103870000DD01B48616E4863606EFDF7C9FD0028DE
:1038800012D0606E416B00E00FE088470CE02046EC
:10389000FFF73CFF08E02046FFF738FF04E0204632
:1038A000FFF734FF0020E06669E780202840002809
:1038B00007D080203040002803D0204601F0D8FCFB
:1038C0005DE740202840002807D0402030400028F5
:1038D00003D0204601F082FB51E700BF4FE7000014
:1038E000A34F000810B50446002C01D1012010BDE3
:1038F000A069002800D000E000BF6920005D00281A
:1039000005D1002168200155204600F02DF8242122
:10391000692001552068006840084000216808605F
:10392000204601F0B3FB012800D1E0E7606A0028DF
:1039300002D0204601F0AEFA206840680121C90299
:10394000884321684860206880680821884321688E
:1039500088602068006801210843216808602046CB
:1039600001F010FBC3E7000010B586B004465349D0
:10397000206888424CD100BF514840690121490468
:1039800008434F49486108464069012149040840FD
:10399000009000BF00BF00BF494840690843484944
:1039A000486108464069012149040840009000BF71
:1039B00000BF00BF4248C06908434149C86108468A
:1039C000C069012149040840009000BF00BF0420E5
:1039D0000190022002900120039003200490012016
:1039E000059001A90920C006FDF746FE08200190B8
:1039F0000120059001A90920C006FDF73DFE012226
:103A000000211C20FDF7C0FF1C20FDF7B1FF52E094
:103A10002C49206888424ED100BF294840690121C5
:103A20004904084326494861084640690121490480
:103A30000840009000BF00BF00BF21484069084314
:103A40001F49486108464069012149040840009027
:103A500000BF00BF00BF1A488069C9100843184959
:103A6000886108468069012189030840009000BFF1
:103A700000BF481101900220029001200390032012
:103A800004900120059001A90920C006FDF7F4FD6E
:103A90000120800201900120059001A90920C006A3
:103AA000FDF7EAFD012200211B20FDF76DFF1B2021
:103AB000FDF75EFF00BF06B010BD000000440040EF
:103AC0000010024000380140034A0168914202D1CF
:103AD0000121024A1170704700440040E4000020B8
:103AE00010B503466920C05C202835D1002901D0DB
:103AF000002A01D1012010BD012424039868A042AE
:103B000008D11869002805D1C807C00F002801D0C6
:103B10000120F0E700BF6820C05C012801D102202D
:103B2000E9E701246820C45400BFD9645020C25280
:103B30005220C2520020D86621246920C45400BFFC
:103B400000246820C45400BF186800688024204303
:103B50001C6820600020CEE70220CCE7074A0168FD
:103B6000914203D10121064A117006E0054A01681D
:103B7000914202D10121044A117070470044004073
:103B8000E4000020003801402A01002000BFFEE7C9
:103B900010B50948094908600620486008480068CF
:103BA0004109064881600749C160FDF777FE00289A
:103BB00001D0FDF70AFB10BD00300040C803002013
:103BC00030010020FF0F000010B50448FDF79CFEF7
:103BD000002801D0FDF7F9FA10BD0000C80300204D
:103BE00070B500241D4D00BF07E02846FDF7A6FB79
:103BF0001B4908552D1D601CC4B2042CF5DB0024A4
:103C000009E02846FDF79AFBC1B21548001D015591
:103C10002D1D601CC4B2042CF3DB002409E02846EF
:103C2000FDF78CFBC1B20E48083001552D1D601CFC
:103C3000C4B2042CF3DB2846FDF780FB0849C88199
:103C40002D1D2846FDF77AFB054908732D1D2846D2
:103C5000FDF774FB0249487370BD000004FC0008C6
:103C60004801002070B50024214DFDF7CBFC214810
:103C700001692846FDF76AFB2D1D00BF07E01D48BE
:103C8000015D2846FDF762FB2D1D601CC4B2042CAB
:103C9000F5DB002408E01748001D015D2846FDF70C
:103CA00055FB2D1D601CC4B2042CF4DB002408E07D
:103CB00010480830015D2846FDF748FB2D1D601CAB
:103CC000C4B2042CF4DB0B48C1892846FDF73EFB47
:103CD0002D1D0848017B2846FDF738FB2D1D0548A2
:103CE000417B2846FDF732FBFDF724FC70BD000048
:103CF00000FC0008480100207CB5164CFDF712FBC3
:103D0000154D16A00068019015A000680090154898
:103D10000199016000994160042213490830FCF7C1
:103D200008FA05200F49C881032008734873284604
:103D300008612046FDF702FBA84208D0C8220B49C3
:103D40000BA001F035FCFDF7D9FAFFF78BFFFFF769
:103D500047FF7CBD00FC0008FEFEFEFE01020100E4
:103D60000100010048010020CA000020006C00088A
:103D7000B5DAD2BBB4CEB3F5CABCBBAF5B25735DBD
:103D80005B25645D0D0A00003EB504460848C07915
:103D900007498979064A52790092019102900448B4
:103DA000037904A20521204601F012FC3EBD00006B
:103DB000480100202563256325632563000000007A
:103DC0001FB5044600230948C07A0849897A074A82
:103DD000527A03930092019102900448037A04A25C
:103DE0000521204601F0F4FB1FBD00004801002022
:103DF000256325632563256325630000012803D11E
:103E0000044A127B0A7004E0022802D1014A527B64
:103E10000A707047480100203EB504460848C07843
:103E200007498978064A5278009201910290044825
:103E3000037804A20521204601F0CAFB3EBD000024
:103E400048010020256325632563256300000000E9
:103E500010B50446042221460348FCF76AF9FDF731
:103E60004DFAFFF7FFFE10BD5001002070B505466A
:103E70000C46012D03D120780649087304E0022D79
:103E800002D1207803494873FDF738FAFFF7EAFEBC
:103E900070BD00004801002010B50446012C03D17C
:103EA00000200649087004E0022C02D100200449D9
:103EB00008700021204600F049FA10BDDD00002006
:103EC000DE0000200146012902D105480078704734
:103ED000022902D103480078F9E700BFF7E70000A4
:103EE000DB000020DC0000200146012902D105484A
:103EF00000787047022902D103480078F9E700BF33
:103F0000F7E70000DD000020DE00002038B50446A1
:103F10000021009169462046FFF770FF684600784F
:103F2000002801D103200090012C03D10120074972
:103F3000087004E0022C02D101200549087068468F
:103F40000178204600F016F838BD0000DD000020A2
:103F5000DE00002010B505490120FFF74FFF04499E
:103F60000220FFF74BFF00F087F910BDDB000020B7
:103F7000DC00002070B505460C4623462A46304931
:103F800030A001F015FB052C01DC012C00DA70BD1E
:103F9000012D28D12E4804702E480078002800D129
:103FA000F5E7230001F045FB061D04090E13181D5B
:103FB0000521284600F0CAF914E00F21284600F038
:103FC000C5F90FE01921284600F0C0F90AE03221B6
:103FD000284600F0BBF905E06421284600F0B6F958
:103FE00000BF00BF2AE0022D28D11B4804701B48E7
:103FF0000078002800D1CAE7230001F01AFB061D53
:1040000004090E13181D0521284600F09FF914E03D
:104010000F21284600F09AF90FE01921284600F0F8
:1040200095F90AE03221284600F090F905E0642174
:10403000284600F08BF900BF00BF00BF00BFA6E715
:10404000246C000825732C25642C25640D0A0000BF
:10405000DB000020DD000020DC000020DE0000206E
:104060007047000010B5002819DA1A4A03071B0F21
:10407000083B9B089B00D2588307DC0EFF23A3401C
:104080009A438B071B0E8407E40EA3401A43114B7F
:104090000407240F083CA408A4001A5118E00E4A93
:1040A00003231B02D21883089B00D2588307DC0E1F
:1040B000FF23A3409A438B071B0E8407E40EA34003
:1040C0001A43054B032424021B198408A4001A5127
:1040D00010BD00001CED00E000E100E010B5584804
:1040E0000078012853D15648C068401C5449C86024
:1040F0000846C06800284AD00020C86008464078BA
:1041000001281BD1084640688968884211D24C4A70
:1041100011695069FCF72CF8494948614869FCF776
:1041200045F9474948600A465168907800F08CF894
:104130002DE0002042490870487028E0404840784F
:10414000022824D13E4840683D49896888421AD9EE
:104150003B4A11695069FCF75CF839494861486984
:104160000021FCF753F902D2002035494861344957
:104170004869FCF71BF9324948600A465168907853
:1041800000F062F803E000202D49087048702D48C7
:104190000078012853D12B48C068401C2949C860C9
:1041A0000846C06800284AD00020C8600846407809
:1041B00001281BD1084640688968884211D8214AE5
:1041C00011695069FBF7D4FF1E4948614869FCF743
:1041D000EDF81C4948600A465168907800F034F8C0
:1041E0002DE0002017490870487028E015484078F5
:1041F000022824D1134840681249896888421AD994
:10420000104A11695069FCF704F80E494861486981
:104210000021FCF7FBF802D200200A494861094955
:104220004869FCF7C3F8074948600A465168907826
:1042300000F00AF803E0002002490870487010BD41
:1042400098030020B0030020034A12683432830828
:104250009B00D150704700003C0300200FB40020A9
:104260000190002168468170017041700020029029
:10427000039004B0704700001CB500242B492C4863
:104280000068FBF72FFF441E2A482B4908600846A8
:1042900044602A49C16000210161816041618161FE
:1042A000FFF762F9002801D0FCF78FFF6020244956
:1042B0000860002088600861C860886148614860C3
:1042C00000221D48FFF7C7F8002801D0FCF77DFF4A
:1042D00000201B49486004221748FFF7BCF800285B
:1042E00001D0FCF772FF00211348FFF797F900286F
:1042F00001D0FCF76AFF04210F48FFF78FF900286F
:1043000001D0FCF762FF0F490869496901910090EB
:104310000C480FC8FFF7A2FF0B49086949690191D2
:10432000009009480FC8FFF799FF1CBD0024F40056
:1043300040010020000400403C0300207F3E0000BC
:104340007C03002098030020B003002070B50546D0
:104350000C46642C00DD64242146284600F048F811
:1043600070BD704710B5FDF7DFFA00F08CFAFCF76E
:104370002BFB00F065FD00F0C5FFFFF7BDFCFFF76C
:10438000E9FDFCF76BF900F0DBFF06A001F010F986
:1043900005A001F00DF90FA001F00AF902A001F04B
:1043A00007F910BD0A0000002A2A2A2A2A2A2A2AE6
:1043B0002A2A2A2A2A2A2A2A2A2A2A2A2A2A2A2A5D
:1043C0002A2A2A2A2A2A2A2A2A2A2A2A2A2A2A0A6D
:1043D000000000002A205B4D61696E5D3A20426951
:1043E0006E676F42696E2042475F4C45440A000089
:1043F00070B504460D46012C26D12849694308466C
:104400006421FBF76FFE26498860002088702548EC
:104410000068343089788910890040582049486004
:10442000012008700020C860084600F03FF81C48D2
:1044300040681B498968884203D8012018494870A0
:1044400002E0022016494870022C26D11349694324
:1044500008466421FBF746FE1349886004208870F3
:1044600010480068343089788910890040580E4916
:104470004860012008700020C860084600F016F867
:104480000948406808498968884203D801200649DC
:10449000487002E002200449487070BD7F3E000071
:1044A000980300203C030020B0030020F0B585B045
:1044B0000546002D01D105B0F0BD2C460026002791
:1044C000A1686068884203D9A1686068461A02E062
:1044D0006168A068461A3046FBF75AFF0022094B74
:1044E00001910090FBF7DCFE03910290FBF772FF55
:1044F00007467F21C9053846FBF793FE206100BFC0
:10450000D9E700000088B34010B50248FDF768FE07
:1045100010BD00004C0200207047704710B501220A
:10452000D1030920C006FDF7ACF910BD10B500227B
:104530000121C9030920C006FDF7A3F910BD70B51C
:1045400005466C6A0021462001530020E087204682
:10455000FDF740FE70BDF8B504460E461546FF2136
:104560000531606888420ED10121C903A0688842E4
:1045700003D04911A068884205D120680068402115
:104580008843216808603346002280212046009538
:1045900000F020F9002805D0206E20210843206675
:1045A0000320F8BDFF2105316068884218D1012140
:1045B000C903A068884203D04911A06888420FD17E
:1045C00033460022032149022046009500F0A8F856
:1045D000002805D0206E2021084320660320E0E754
:1045E0000020DEE7F8B504460E46154633460022A5
:1045F0000321C9022046009500F092F8002805D05A
:10460000206E2021084320660320F8BD3346002297
:1046100080212046009500F0DDF8002805D0206EAE
:104620002021084320660320EFE7334600220321C0
:1046300049022046009500F073F8002805D0206E4E
:104640002021084320660320DFE70020DDE700008B
:1046500010B512481249086008211148C1610021B3
:1046600081604161016107210902C160002101628D
:10467000416281620721C1620121016349028161B6
:1046800000214163FF200530054948600846FDF7D9
:1046900053FE002801D0FCF798FD10BD003001400A
:1046A0004C02002008B500BF0E4800688068C007B3
:1046B000C00F0121484048400028F5D17D231B014F
:1046C000012269460748FDF73FFF00BF0548006823
:1046D000806880210840C0090028F7D1684600782A
:1046E00008BD00004C02002001B500BF0B48006867
:1046F00080680221084040080028F7D000230122EA
:1047000069460648FEF78EF800BF044800688068D6
:1047100080210840C0090028F7D108BD4C020020C4
:10472000F8B504460E4617461D464CE003204002ED
:10473000864206D1002F04D12068017B0091684693
:104740000078681C00283ED0002D05D0FDF7A0F8A9
:104750000699401AA84236D320684068E021884371
:1047600021684860FF210531606888420ED101212F
:10477000C903A068884203D04911A068884205D1C6
:1047800020680068402188432168086001214903AE
:10479000A06A88420DD100BF206800688843216864
:1047A0000860206800680121490308432168086007
:1047B00000BF01215D20015500BF00215C20015593
:1047C00000BF0320F8BD206880683040B842ADD1FA
:1047D0000020F7E7F8B504460E4617461D4641E0AF
:1047E000681C00283ED0002D05D0FDF751F8069931
:1047F000401AA84236D320684068E02188432168E7
:104800004860FF210531606888420ED10121C9034B
:10481000A068884203D04911A068884205D1206869
:104820000068402188432168086001214903A06A8B
:1048300088420DD100BF2068006888432168086065
:10484000206800680121490308432168086000BF0F
:1048500001215D20015500BF00215C20015500BFF2
:104860000320F8BD206880683040B04201D10120AB
:1048700000E00020B842B3D10020F2E7704710B545
:10488000FDF74AF810BD00B591B0012001900290EB
:1048900002200990C1030A9100210C91C1040B91DF
:1048A00001A8FDF7F1F9002801D000BFFEE70720BD
:1048B0000D9002200E9000200F90109001210DA865
:1048C000FDF76CF8002801D000BFFEE711B000BD75
:1048D00019480068012108431749086008464068E4
:1048E00016490840144948600846006814490840C1
:1048F00011490860084600680121890488430E496F
:104900000860084640683F21090488430A49486016
:104910000846C06A00090001C8620846006BFF2112
:1049200014318843044908630846406B400840003E
:104930004863002088607047001002400CB8FF08F0
:10494000FFFFF6FE10B50248FEF7A0FC10BD000008
:10495000D803002010B50248FEF798FC10BD0000F7
:104960009C01002010B500220268204B984202D022
:104970001F4B984205D170241346A3431A464B6837
:104980001A431A4B98420ED0194B98420BD0194B30
:10499000984208D0184B984205D0184B984202D044
:1049A000174B984206D1032424021346A3431A4608
:1049B000CB681A4380241346A3434C6923431A4609
:1049C00002608B68C3620B688362084B984208D010
:1049D000094B984205D0094B984202D0084B9842A7
:1049E00001D10B6903630123436110BD002C014019
:1049F000000400400020004000400140004401400D
:104A00000048014030B5002301248C402346046A4D
:104A10009C430462046A15468D402C43046230BDF9
:104A200070B5002400220023056A6D086D00056240
:104A3000026A4368846970262546B5432C46A4085B
:104A4000A4000D682C4302261546B5432A468D68FE
:104A50002A431C4DA84200D10BE01B4DA84200D1B7
:104A600007E01A4DA84200D103E0194DA8420AD12F
:104A700000BF08261546B5432A46CD682A430426BA
:104A80001546B5432A460F4DA84208D00E4DA84200
:104A900005D00E4DA84202D00D4DA8420CD1FF26E4
:104AA00001361D46B5432B4676001D46B5432B46C1
:104AB0004D692B438D692B43436084614D68456389
:104AC000026270BD002C01400040014000440140E2
:104AD0000048014070B5002400220023056A10261A
:104AE000B5430562026A4368846907263603254692
:104AF000B5432C46032636022546B5432C460D68A1
:104B00002D022C4320261546B5432A468D682D01DB
:104B10002A431E4DA84200D10BE01D4DA84200D1F2
:104B200000BF1C4DA84200D100BF1B4DA8420BD1B5
:104B30000AE080261546B5432A46CD682D012A4352
:104B400040261546B5432A46104DA84208D0104DC0
:104B5000A84205D00F4DA84202D00F4DA8420ED159
:104B60000126B6021D46B5432B4676001D46B543C9
:104B70002B464D69AD002B438D69AD002B4343603F
:104B800084614D688563026270BD0000002C0140A5
:104B900000400140004401400048014070B500243D
:104BA00000220023056AFF260136B5430562026A2A
:104BB0004368C46970262546B5432C46A408A40062
:104BC0000D682C43012676021546B5432A468D68AA
:104BD0002D022A431E4DA84200D10BE01D4DA842D4
:104BE00000D100BF1C4DA84200D100BF1B4DA84200
:104BF0000CD10BE00126F6021546B5432A46CD68D6
:104C00002D022A4376101546B5432A46104DA84278
:104C100008D0104DA84205D00F4DA84202D00F4D2C
:104C2000A8420ED1012636031D46B5432B46760019
:104C30001D46B5432B464D692D012B438D692D0132
:104C40002B434360C4614D68C563026270BD0000C0
:104C5000002C014000400140004401400048014058
:104C600070B5002200230024056A01263603B543EF
:104C70000562036A4468C269072636031546B543D0
:104C80002A46032636021546B5432A460D682D02EC
:104C90002A43012676031D46B5432B468D682D0316
:104CA0002B430D4DA84208D00C4DA84205D00C4D09
:104CB000A84202D00B4DA84207D10126B6032546D3
:104CC000B5432C464D69AD012C434460C2614D682B
:104CD0000564036270BD0000002C014000400140EB
:104CE0000044014000480140F0B50C460021002579
:104CF000066A7608760006628169056A134EB0423C
:104D000005D0134EB04202D0124EB04201D101265E
:104D100000E00026002E05D0890889000E461643C3
:104D2000314601E001263143F0260F46B7433946AC
:104D30001E01F0273E4031430A262F46B7433D4629
:104D40002640354381610562F0BD0000002C014022
:104D50000004004000400140F0B50C460021002551
:104D6000066A1027BE4306628169056A0326360279
:104D70000F46B7433946160231430F2636030F4616
:104D8000B74339461E030F273F033E403143A02659
:104D90002F46B7433D462601A0273E40354381615B
:104DA0000562F0BDF0B50C4600210025066AFF271C
:104DB0000137BE430662C169056A890889000E464B
:104DC00016433146F0260F46B74339461E01F027F9
:104DD0003E403143052676022F46B7433D46260224
:104DE00005277F023E403543C1610562F0BDF0B545
:104DF0000C4600210025066A01273F03BE430662D8
:104E0000C169056A032636020F46B74339461602C2
:104E100031430F2636030F46B74339461E030F278B
:104E20003F033E403143052676032F46B7433D46B8
:104E3000260305277F033E403543C1610562F0BD6F
:104E400010B500240F4910480068FBF74BF9441EC9
:104E50000E480F49086009210D48C16044600021D7
:104E60000161816041618161FEF72DF8002801D068
:104E7000FCF7ABF90648FEF761F8002801D0FCF713
:104E8000A4F910BD1027000040010020004001409F
:104E90009C010020818CC907C90F002908D0016836
:104EA0004968012252049143826A114302685160A9
:104EB0000222416A1140002907D001684968D203E3
:104EC0009143C26A1143026851600422416A114051
:104ED000002907D00168496812049143026B11430D
:104EE000026851600822416A1140002907D0016818
:104EF000496812039143426B1143026851601022CA
:104F0000416A1140002907D0016889681202914363
:104F1000826B1143026891602022416A114000298E
:104F200007D00168896812029143C26B114302687D
:104F300091604022416A1140002915D001684968FA
:104F400092039143026C11430268516001221205E1
:104F5000016C914208D101684968032252059143CE
:104F6000426C1143026851608022416A114000295D
:104F700007D00168496812039143826C11430268AB
:104F80005160704701460020C866202269204254C3
:104F90006A20425400BF00226820425400BF002013
:104FA000704770B505466C6A00215A2001535220A3
:104FB00001532046FEF7AAFB70BD01680968FF2275
:104FC00021329143026811600168896849084900EB
:104FD0000268916020226A210A54704710B5044685
:104FE00020680068402188432168086020216920EA
:104FF00001552046FEF7B2FD002010BDF8B504466D
:105000005C20075B6A20005D222836D12068858CF1
:1050100001210903A06888420AD12069002807D12C
:10502000666D284638403080606D801C606505E004
:10503000F8B22840626D511C616510705A20005B07
:10504000401E81B25A200153002914D12068006803
:10505000FF2121318843216808602068806840086A
:1050600040002168886020216A2001552046FEF713
:105070002BFD0020F8BD0020FCE720688069082196
:105080000843216888610220F4E70000FEB5044669
:105090000025102600270020029001902169A068B9
:1050A000084361690843E1690843054620680068D0
:1050B0006849084028432168086020684068032147
:1050C00009038843E168084321684860216AA069B0
:1050D00008430546206880680B210902884328435D
:1050E0002168886000BF5C492068884217D15B480E
:1050F000006B8007800F002806D0012808D0022806
:1051000008D0032808D101E0002607E0022605E0C8
:10511000042603E0082601E0102600BF06E05049FF
:105120002068884201D1002600E0102600BF01213E
:10513000C903E069884249D1042E20D004DC002E46
:1051400007D0022E32D111E0082E25D0102E2DD1FD
:105150002DE0FCF7F3FC400061684908401800901E
:105160006168FAF7BFFF80B2029023E061684A08E5
:105170003C4BD018FAF7B6FF80B202901AE0FCF769
:10518000EFFC400061684908401800906168FAF738
:10519000A9FF80B202900DE061684A0801231B0458
:1051A000D018FAF79FFF80B2029003E000BF012001
:1051B000019000BF00BF2C490298084007460298A2
:1051C0000007400F07432068C76040E0042E21D04D
:1051D00004DC002E07D0022E34D111E0082E26D098
:1051E000102E2FD12FE0FCF7A9FC61684908401868
:1051F00000906168FAF776FF80B22168C86025E008
:1052000061684A08194BD018FAF76CFF80B2216820
:10521000C8601BE0FCF7A4FC6168490840180090D6
:105220006168FAF75FFF80B22168C8600EE06168CC
:105230004A080123DB03D018FAF754FF80B2216833
:10524000C86003E000BF0120019000BF00BF0198CB
:10525000FEBD0000F369FFFF00380140001002406E
:10526000004400400024F400F0FF000000127A0027
:1052700001466920405C212831D15220405A002843
:105280000DD108680068802398430B68186008688F
:105290000068402318430B68186000207047012302
:1052A0001B03886898420CD10869002809D1CA6C90
:1052B0001088C005C00D0B681885C86C801CC864B8
:1052C00005E0CB6C581CC86418780B681885522010
:1052D000405A401E83B2522043520020DEE7022093
:1052E000DCE7000010B50248FEF732FA10BD0000FE
:1052F000CC02002010B50248FEF72AFA10BD0000CB
:10530000DC01002010B50C480C4908604B20C0019E
:105310004860002109488160C160016181610C2100
:1053200041610020054948620846FEF7DBFA002883
:1053300001D000BFFEE710BD00440040DC010020AA
:1053400010B50748406A012109060843044948622C
:10535000FCF70CF803490860FEF71AFC10BD0000CA
:10536000001002403001002038B504461F4988680B
:1053700080471E490869804700BF1C48006A002812
:1053800003D01A48406A002812D1FF22120422409A
:10539000100C164AD1698847FF2212022240100AD7
:1053A000124AD1698847E0B2104AD169884711E0B2
:1053B000FF2000042040010C68460170FF2000021D
:1053C0002040010A68464170847008480321426AFF
:1053D00068469047054988698047054603494869FA
:1053E00080470249C8688047284638BDFC00002035
:1053F000F8B504460E461746244988688047234975
:105400000869804700BF2148006A002803D01F4870
:10541000406A00281CD1FF2212042240100C1B4AB3
:10542000D1698847FF2212022240100A174AD16927
:105430008847E0B2154AD1698847002505E013493D
:10544000886980477055681C85B2BD42F7DB16E05D
:10545000FF2000042040010C68460170FF2000027C
:105460002040010A68464170847008480321426A5E
:105470006846904705483946026A304690470349D6
:10548000486980470149C8688047F8BDFC00002092
:1054900038B504460D461E49886880471C4908698E
:1054A0008047042004431A48406A002816D1FF228E
:1054B00012042240100C164AD1698847FF221202BA
:1054C0002240100A124AD1698847E0B2104AD169D5
:1054D00088470F48C1692846884712E0FF2000042A
:1054E0002040010C68460170FF2000022040010AA4
:1054F000684641708470C57005480421426A684658
:1055000090470349486980470149C868804738BDCA
:10551000FC000020F8B504460E461746234988686B
:105520008047224908698047042004431F48406A95
:1055300000281CD1FF2212042240100C1B4AD16902
:105540008847FF2212022240100A184AD169884770
:10555000E0B2164AD1698847002505E0705D134A1C
:10556000D1698847681C85B2BD42F7DB16E0FF2091
:1055700000042040010C68460170FF20000220401A
:10558000010A68464170847008480321426A6846EF
:10559000904706483946426A304690470349486971
:1055A00080470249C8688047F8BD0000FC00002021
:1055B0000FB410B503A9044B044A029800F056F842
:1055C00010BC08BC04B01847B15D000844010020BD
:1055D0000FB41CB50246002007AC00290BD0491EB1
:1055E00001910092064B6A462146069800F03EF86B
:1055F000009A002111701CBC08BC04B018470000C0
:10560000E15A00082021020C01D010211046020AA4
:1056100001D010460839020901D01046091F82083E
:1056200001D01046891E420801D0881E7047081A12
:10563000704730B47446641E2578641CAB4204D3B2
:10564000635D5B00E31830BC18471D46F8E702E0D5
:1056500008C8121F08C1002AFAD1704770470020FD
:1056600001E001C1121F002AFBD17047FFB591B0C4
:105670000F460546002606E025280AD0149A1399FD
:1056800090476D1C761C28780028F5D1304615B05F
:10569000F0BD002400940121F34A029400E0044389
:1056A0006D1C2B780846203B98401042F7D1287893
:1056B0002A280ED0022128780246303A092A15D825
:1056C000009A0A235A43303A80180C436D1C00900C
:1056D000F1E701CF0090002805DA012040030443E0
:1056E000009840420090022004436D1C28782E2828
:1056F00015D10420044368786D1C2A280AD101CFF3
:105700006D1C02900BE002990A2251433039401877
:105710006D1C02902878014630390929F3D9287880
:105720006C2810D006DC4C281AD068280ED06A28C5
:1057300017D104E0742813D07A2812D110E0012088
:10574000400504430CE00121090501E0032109059E
:105750000C436978814203D10120000524186D1C97
:105760006D1C287803906E281ED00CDC632831D085
:1057700004DC00288AD0582811D1B2E064287BD0FC
:1057800069280CD178E073282DD004DC6F2870D004
:10579000702804D1A7E075286CD078286BD0149AB3
:1057A00013999047761C62E06002400F022807D0F0
:1057B00003280AD0042838680AD006603F1D56E046
:1057C0003868F11706604160F8E738680680F5E749
:1057D0000670F3E73878694608740020487404A816
:1057E0000390012003E0386803900020C0433F1D70
:1057F00061070FD5002101E00199491C029A01912E
:10580000914213DA8142F7DB019A0399895C0029FE
:10581000F2D10BE0002101E00199491C0191814284
:10582000FADB019A0399895C0029F5D10199009866
:10583000139A401A00902146149B00F03BF90199FD
:105840008019461807E0039803990078491C0391D2
:10585000149A139990470198401E0190401CF2D170
:105860002146149B139A009800F014F986196D1CB8
:1058700009E741E033E034E00A200021049005917B
:105880006002410F022905D001CFC21794460329B7
:1058900005D007E0FF1DFF08FF0003CF06E000B2C0
:1058A000C2179446042902D140B2C1178C46002287
:1058B0006146944506DA0A460021404291418C46F1
:1058C0002D2102E0210504D52B216A461176012104
:1058D00003E0E10701D02021F7E7019154E00A201D
:1058E0000BE0102009E01020049000210420044364
:1058F00008200591029003E0082000210591049002
:105900006002410F022905D001CF002294460329ED
:1059100006D006E0FF1DFF08FF0003CF8C4603E022
:1059200080B2042900D1C0B20021019121072BD5FA
:105930000399702906D0049A1021059B4A401A4306
:1059400005D00EE040216A461176012108E061464B
:10595000014306D030216A4611760399517602211F
:105960000191049A0821059B4A401A430CD16146D3
:10597000014301D1610707D530216A461176012123
:1059800001910299491E02910399582904D037A127
:1059900003910FA90F910DE039A1F9E76146059B2D
:1059A000049AFAF73DFD039B8C469B5C0F9A521EAE
:1059B0000F92137061460143F0D10F9807A9081A9E
:1059C00020300390600704D501200004844302982E
:1059D00001E0012002900399884201DD401A00E0B5
:1059E000002041180290019809180098401A009070
:1059F000E00306D42146149B139A009800F05AF84D
:105A000086190020049008E006A9085C149A1399EE
:105A100090470498401C761C049001998842F3DB5F
:105A2000E0030CD52146149B139A009800F042F82D
:105A3000861904E0149A302013999047761C029935
:105A4000481E02900029F5DC08E00F980F990078B5
:105A5000491C0F91149A13999047761C0399481E7C
:105A600003900029F1DCFBE60928010030313233D4
:105A7000343536373839616263646566000000008A
:105A80003031323334353637383941424344454674
:105A900000000000F8B5044600251E46174688049D
:105AA00004D405E039462020B0476D1C641EF9D5AA
:105AB0002846F8BDFFB50446002581B01E46C80340
:105AC00001D5302700E02027880404D505E03846BA
:105AD0000399B0476D1C641EF9D5284605B0F0BD8A
