:020000040800F2
:1000000010080020C9000008BD450008C9400008CC
:1000100000000000000000000000000000000000E0
:10002000000000000000000000000000454A000839
:10003000000000000000000039460008474A0008A0
:10004000DB00000800000000DB000008DB00000807
:10005000DB000008DB000008DB00000815110008C9
:1000600000000000DB000008DB000008DB000008E7
:10007000DB000008DB000008DB00000800000000D7
:10008000DB000008DB000008000000000D4B00084A
:100090001D4B0008DB000008DB000008DB00000847
:1000A000DB000008D1460008DB000008E55100082D
:1000B000F55100080348854600F08AF800480047DB
:1000C0002D5E0008100800200448804704480047BF
:1000D000FEE7FEE7FEE7FEE7FEE7FEE7994A0008D7
:1000E000B500000830B50B4601460020202201244F
:1000F00009E00D46D5409D4205D31D469540491B5C
:100100002546954040191546521E002DF1DC30BDA4
:1001100010B5202A04DB0846203AD040002110BD4B
:100120000B46D340D0402024A21A914008431946E0
:1001300010BD03460B439B0703D009E008C9121FFB
:1001400008C0042AFAD203E00B780370401C491C53
:10015000521EF9D2704730B504460020034600E035
:100160005B1C934203D2E05CCD5C401BF8D030BDF9
:10017000F0B51FB40646002082B005464024019128
:1001800000901BE0019922460F463046FFF7C0FF62
:10019000049A059B801A994110D3104619462246AD
:1001A00000F028F8361A8F410197224601200021DD
:1001B000009F00F01FF838184D4100902046641E43
:1001C0000028DFDC019B00982946324607B0F0BDCD
:1001D000064C0125064E05E0E36807CC2B430C3C9A
:1001E00098471034B442F7D3FFF768FF146B000848
:1001F000346B000810B5202A04DB0146203A9140F8
:10020000002010BD914020239C1A0346E34019436F
:10021000904010BD70B58C180578401C6B075B0FC3
:1002200001D10378401C2A1106D10278401C03E05A
:1002300006780E70401C491C5B1EF9D12B0705D4B3
:100240000023521E0DD40B70491CFAE70378401CA2
:10025000CB1A921C03E01D780D70491C5B1C521ECA
:10026000F9D5A142D8D3002070BD70B50446002551
:1002700020688068042108408008002829D0206870
:100280008068084000280BD0206880680221084060
:10029000002805D120688068102108432168886003
:1002A00001F098FE05460EE001F094FE401B022886
:1002B00009D9606C102108436064A06C01210843D7
:1002C000A064012070BD20688068042108400028D7
:1002D000EAD10020F6E770B5044600252068806862
:1002E0008007800F01280ED120680068C007C00F6A
:1002F000002806D12068C0680121C903084088424F
:1003000001D1012000E00020002837D0206880685B
:1003100005210840012800D100E0002000280AD073
:1003200000BF20688068022108432168886003209C
:100330002168086009E0606C102108436064A06CCB
:1003400001210843A064012070BD01F043FE054671
:100350000EE001F03FFE401B022809D9606C10211D
:1003600008436064A06C01210843A0640120EBE70E
:1003700020688068C007C00F0028EAD10020E3E7AA
:1003800038B504460025002000902068806880076A
:10039000800F01280ED120680068C007C00F002818
:1003A00006D12068C0680121C9030840884201D1F4
:1003B000012000E00020002843D120688068224905
:1003C0000840002801D1012000E00020002809D1C8
:1003D000606C102108436064A06C01210843A06494
:1003E000012038BD206880680121084321688860A9
:1003F000164917480068FFF775FE009002E0009864
:10040000401E009000980028F9D101F0E3FD054658
:100410000EE001F0DFFD401B022809D9606C1021BD
:1004200008436064A06C01210843A0640120D8E760
:1004300020680068C007C00F0121484048400028DC
:10044000E7D00020CDE700001700008040420F00F9
:100450004C01002070B504460025002600F01EF86F
:100460000646401C002801D0354602E00020C0436B
:1004700070BD601E84B200BF00F010F80646401C3C
:10048000002802D07019450802E00020C043EFE7C1
:10049000601E80B2041EEFD12846E9E710B50A4875
:1004A00001F096FA7D210901074801F01FFA0028A2
:1004B00004D1054801F0E8F884B202E00020C0430E
:1004C00010BD2046FCE70000A801002010B5142054
:1004D000FFF7C0FF0446401C002801D1401E10BD9C
:1004E0002046FCE710B51E481E490860084601F08A
:1004F0006FF8002801D000F012FE0120C007194952
:100500004860002117488160C16001614161C1619B
:10051000816101624162FF21C23181620021C162B9
:10052000016341630721816301F0B2F8002801D023
:1005300000F0F5FD0B4800F015FF002801D000F099
:10054000EEFD0020084908600120000348600548CE
:1005500000F07AFF002801D000F0E1FD10BD00009E
:1005600000240140A8010020F401002000B58BB058
:100570001D4B0FCB059302AB07C304F04DF91B498C
:100580001B4805F03FFD1B491B4805F051FD1B4969
:100590001B4805F063FD00BF1A484069012189042A
:1005A0000843184948610846406901218904084008
:1005B000019000BF00BF402006900120079000205E
:1005C00008900320099006A90F4801F0F7FB00F0FE
:1005D0006FF902A9012005F06FFA401C002801D133
:1005E00000BFFEE70BB000BDC86A0008E346000884
:1005F000E1460008E5460008F5460008B148000855
:100600006D480008001002400004004800B58DB09D
:100610000BA803F073FE08A8C07B009008A8837B9A
:10062000427B017B5BA004F043FF08A8007BC0284D
:1006300018D108A8407BA82814D108A8807B0128DD
:1006400010D104220BA95848FFF773FD5648801FAC
:10065000407A00905448801F037AC279817953A070
:1006600004F026FF5648C06A06905548006B079074
:100670005348406B089053A006A90EC904F018FF18
:10068000002108A801714E48808DC1B208A84171AF
:100690004B48808D0004010E08A881714848C06A4B
:1006A0000002010E08A8C1714548C06A010E08A8E1
:1006B00001724348008EC1B208A84172417A007AA3
:1006C0000191009008A8C3798279417947A004F08C
:1006D000EFFE062209A93448801FFFF72AFD3249A0
:1006E000891F002005F0C0F92F49891F012005F05E
:1006F000BBF904A9082005F0DFF904A946A004F01D
:10070000D7FE2948801F40792749891F0979264A41
:10071000921FD2780092019102902348801F837823
:100720004278017842A004F0C3FE1F48801F407A3F
:1007300000901D48801F037AC27981791BA004F0C4
:10074000B7FE1948801F407C00901748801F037C2B
:10075000C27B817B40A004F0ABFE1348801F407B2E
:1007600000901148801F037BC27A817A3FA004F079
:100770009FFE0D48801F407D00900B48801F037D29
:10078000C27C817C3EA004F093FE42A004F090FE67
:100790000DB000BD49503A2025642E25642E2564F5
:1007A0002E25640D0A000000D40000205349503A61
:1007B0002025642E25642E25642E25640D0A000054
:1007C00080F7FF1F726E2323232323232323232356
:1007D0002320D0BEC6ACCEA8D2BB4944CEAA3A2074
:1007E00025582D25582D2558200D0A00726E2323DB
:1007F00023232323232323232320BDD8C8A1494413
:10080000CEAA3A2025582D25582D25582D25582D6E
:100810002558200D0A0000000D0A3D3D3D2025739E
:10082000204E455420434F4E46203D3D3D0D0A008D
:100830004D41433A20253032583A253032583A2536
:100840003032583A253032583A253032583A25302D
:1008500032580D0A000000004741523A2025642E0C
:1008600025642E25642E25640D0A00005355423A56
:100870002025642E25642E25642E25640D0A000093
:10088000444E533A2025642E25642E25642E25647B
:100890000D0A00003D3D3D3D3D3D3D3D3D3D3D3D65
:1008A0003D3D3D3D3D3D3D3D3D3D0D0A00000000CF
:1008B00010B500224021074801F085FB0A2001F015
:1008C000EFF801224021034801F07DFB0A2001F0EE
:1008D000E7F810BD0004004800B587B000BF11481C
:1008E00040690121C90408430E494861084640692E
:1008F0000121C9040840019000BF00BF8811029087
:1009000001200390002004900320059002A90648CE
:1009100001F054FA01225103034801F054FB07B0DF
:1009200000BD0000001002400008004810B5012280
:100930005103024801F047FB10BD000000080048C9
:1009400010B5002201214903014801F03CFB10BD14
:100950000008004810B501214903024801F02FFBAF
:1009600010BD00000008004810B5024613780120B1
:1009700002E0145C6340401C4C1E8442F9DC1846C3
:1009800010BD000038B50446E17968460170217A4F
:100990004170617A8170A17AC17003F0EFFC0C2183
:1009A0000348FFF7E1FF02490873084638BD00001D
:1009B0009300002010B500200549087003F03EFDAB
:1009C0000D210448FFF7D0FF02490873084610BD07
:1009D0000000002066000020FEB504460E4674A00C
:1009E00004F066FD00200290029009E00298225C6B
:1009F000014672A004F05CFD0298401CC0B2029057
:100A00000298B042F2DB70A004F052FD607900025F
:100A1000A1790843C7B2B7421EDAF21BE11920469A
:100A2000FFF787FBF01B86B268A004F041FD0020B1
:100A30000090009009E00098225C01465FA004F05D
:100A400037FD0098401CC0B200900098B042F2DB25
:100A50005DA004F02DFD07E060790002A179084354
:100A6000B04201DD0420FEBD31462046FFF77CFF89
:100A70000190701E215C0198814201D00220F2E7B2
:100A80002078242801D00320EDE7042252A1601C25
:100A9000FFF761FB00280CD100F0C2F805460020EA
:100AA00003E0295C2170641C401CA9798142F8DCB8
:100AB0007CE004224AA1601CFFF74DFB00280CD10A
:100AC00000F0E2F80546002003E0295C2170641C78
:100AD000401CA9798142F8DC68E0042242A1601C34
:100AE000FFF739FB00280CD100F020F90546002063
:100AF00003E0295C2170641C401CA9798142F8DC68
:100B000054E004223AA1601CFFF725FB00280CD119
:100B1000FFF750FF0546002003E0295C2170641CAC
:100B2000401CA9798142F8DC40E0042232A1601C1B
:100B3000FFF711FB00280CD100F0B2F805460020A9
:100B400003E0295C2170641C401CA9798142F8DC17
:100B50002CE004222AA1601CFFF7FDFA00280DD129
:100B6000204600F0F7F80546002003E0295C2170DC
:100B7000641C401CA9798142F8DC17E0042222A100
:100B8000601CFFF7E8FA00280ED12046FFF7FAFEB6
:100B90000546002003E0295C2170641C401CA979F3
:100BA0008142F8DC01205EE705205CE700205AE77F
:100BB0007265637620646174613A00006275665BF9
:100BC00025645D3D255820000D0A000073706C6996
:100BD0007420646174613A0043585342000000007D
:100BE0004845415400000000444B4D5300000000B4
:100BF00047424D530000000043584D530000000091
:100C0000535A4D530000000058474950000000005F
:100C100010B50446204604F0D9FEFFF7F7FC10BDDE
:100C20001FB502A803F04EFB684603F085FB0521C3
:100C300002A805F03FF90521684605F03BF9684632
:100C4000007A104988726846407A48726846807A0D
:100C500008726846C07AC87168460078887368462A
:100C6000407848736846807808736846C078C872D0
:100C700010210448FFF778FE0249C873084604B003
:100C800010BD00000400002000B508210348FFF754
:100C90006BFE0249C871084600BD00001400002028
:100CA00010B50B49022003F0C9FB09480078094937
:100CB000C871074840880012087205488078487259
:100CC0000B210448FFF750FE02498872084610BD08
:100CD000000000204E0000201CB5044605222146DD
:100CE0006846FFF726FA684640780949C8716846A1
:100CF000807808726846C0784872684600798872C1
:100D00000D210348FFF730FE0149087308461CBD5A
:100D1000AD00002000B50D210348FFF725FE024974
:100D20000873084600BD00007E00002010B50120B9
:100D300006490870002003F081FB0D210448FFF7ED
:100D400013FE03490873084610BD00000000002090
:100D50005900002010B50446E0791A490872207A3B
:100D60004872E0790002217A084317494880084612
:100D70004088FF212D31884203DD2046FFF7ACFF7C
:100D800010BD11484088052803DA2046FFF7A4FF6C
:100D9000F6E70D4841880DA004F08AFB0A48801C44
:100DA00003F0FAFA084800780649C871064901209C
:100DB00003F044FB0B210348FFF7D6FD014988727D
:100DC0000846DDE773000020000000204C6F636BD5
:100DD0005F74696D653A2025640D0A00F7B58AB025
:100DE00004460E460025002009900890A100491CE9
:100DF000C90003221202881804F036FA00286FD0C6
:100E000013286ED0172802D01C286BD1BFE0A10098
:100E1000491CC900C81DFF30FA3004F025FAC0078C
:100E2000C00F002844D0A100491CC900032292022F
:100E30008818042207A904F05BFAA100491CC90024
:100E400001221203881804F00FFA0702A100491CBE
:100E5000C900012212038918C81DF93004F004FAF0
:100E6000381880B206906946CA7F897F0698019239
:100E7000009102906846437F027F214667A004F0FC
:100E800017FBA100491CC900C81DFF30FA30012121
:100E900004F07EFAA0210491012204A9204605F065
:100EA000FBF845B2002D02DA204604F08FFD00BFAA
:100EB00063480078012816D1002061490870FFF7C7
:100EC00029FF07460D223946204605F0E5F845B2D0
:100ED000002D08DA204604F079FD28460DB0F0BD5B
:100EE00074E065E095E0204604F0E6FE09900028F5
:100EF0004CDD0998402801DD40200990314620460C
:100F0000099A04F0EFFF45B2002D01DC2846E5E721
:100F100030460999FFF760FDC0B2089049A00899D2
:100F200004F0C6FA0898030004F0ECFA06040B1764
:100F30001B1F2327B2793146204605F0ADF845B294
:100F40001CE0B2793146204605F0A6F845B22046AD
:100F500004F03CFDFFF75AFB10E040A004F0A8FAB3
:100F60000CE041A004F0A4FA08E043A004F0A0FAC9
:100F700004E043A004F09CFA00E000BF00BF002D95
:100F800004DA204604F022FD2846A7E742E0214685
:100F90003EA004F08DFA204604F018FE0546012814
:100FA00001D028469AE721463CA004F081FA31E0BE
:100FB00021463FA00C9A04F07BFA204604F0EAFE9A
:100FC0000546012801D0284688E723E0214644A0B1
:100FD00004F06EFA0023012120460C9A05F0DAF99C
:100FE0000546A04201D0284678E70120059005AAD1
:100FF0000721204605F00CF90546012804D02046BB
:1010000004F0E4FC284669E721463DA004F050FACC
:1010100000E000BF00BF012060E7000025643A4304
:101020006F6E6E6563746564202D2025642E2564C3
:101030002E25642E2564203A2025640D0A00000028
:10104000CD0000206465616C5F646174615F7265EE
:101050007475726E3D25640D0A000000D0A3D1E9BD
:10106000B4EDCEF30D0A0000BFAACABCB1EAD6BEE9
:10107000B4EDCEF30D0A0000B6AAB0FC0D0A0000D4
:10108000CEB4D6AAC3FCC1EE0D0A000025643A43D3
:101090006C6F7365576169740D0A000025643A53DB
:1010A0006F636B657420436C6F7365640D0A000099
:1010B00025643A4C697374656E2C20544350207338
:1010C0006572766572200909096C6F6F70626163E1
:1010D0006B2C20706F7274205B25645D0D0A00001C
:1010E00025643A54435020736572766572206C6FA4
:1010F0006F706261636B2073746172740D0A00001B
:1011000025643A536F636B6574206F70656E656418
:101110000D0A000010B5402000F040FE10BDFFF7A2
:1011200005FCFFF70DFC00BFFEE7000000200749AB
:10113000C861074800690421084305490861084659
:10114000006940210843024908617047F00300200C
:10115000002002400021084AD161084909690222A1
:101160001143064A11611146486109694022114341
:10117000024A116170470000F00300200020024085
:101180000022054BDA61054A126901231A43034B19
:101190001A61018070470000F00300200020024027
:1011A00000200F49C96810221140102907D10D49AC
:1011B000C969022211430B4AD16110210843084931
:1011C000C96804221140042907D10649C9690122CE
:1011D0001143044AD161042108430149C8607047A2
:1011E00000200240F003002070B5044600F0F2FE3B
:1011F00005460BE0601C002808D0002C04D000F04D
:10120000E9FE401BA04201D9032070BD0F48C06811
:10121000C007C00F0028EDD10C48C068202108404D
:10122000202801D10949C8600848C0681021084039
:10123000102805D00548C06804210840042803D1BF
:10124000FFF7AEFF0120E0E70020DEE700200240CC
:1012500008B50020009000F0F1FC6946054800F058
:101260002FFC002803D001E0FFF76AFBFCE700F049
:101270007DFC08BD240300200020034908600348CA
:1012800048600120886070472403002000FC0008AB
:1012900008B501460020009008680090009808BD3D
:1012A00070B505460C46224600232946022000F070
:1012B00067FC002803D001E0FFF742FBFCE770BDAC
:1012C0001FB52348234908600020486000212148B9
:1012D00081602149C16000210161816102F0AEFAA3
:1012E000002801D0FFF71BFF03211A4802F076F90E
:1012F000002201214906104601F036F80020009036
:10130000012001900C2002900020039000226946E9
:10131000104802F0F9F9002801D0FFF700FF002182
:101320000C4802F0D5FA002801D0FFF7F8FE00BF04
:101330000A4800680228FBD10021064802F000FBA1
:10134000044802F053FA0648006804B010BD0000DB
:1013500000200040B0030020FFFF000040010020FB
:101360003C010020F8B5044600250026002700BFF8
:101370004020005D012801D10220F8BD012140205C
:10138000015500BF206880688007800F01280CD1BC
:10139000206800680840002805D12068C068C9039B
:1013A0000840884201D1012000E0002000283FD100
:1013B000606CFF210131884302210843606420688A
:1013C000C0688707BF0F2068C06880088000216858
:1013D000C860206880680121C907084321688860C7
:1013E00000F0F8FD064611E000F0F4FD801B022835
:1013F0000CD9606C0221884310210843606400BF4F
:1014000000214020015500BF0120B6E72068806818
:10141000C00FC0070028E7D12068C06838432168A2
:10142000C860606C0221884301210843606404E0C5
:10143000606C202108436064012500BF002140202A
:10144000015500BF284698E7F8B504460D4600262A
:101450000020009001210907A06B884215D0A06BE5
:10146000012812D0A06B02280FD0A06B03280CD04B
:10147000A06B042809D0A06B052806D0A06B062815
:1014800003D0A06B072800D000BF00BF4020005D44
:10149000012801D10220F8BD01214020015500BFE3
:1014A0002068806804210840800800287BD14449D6
:1014B000686888425BD02068806A2A780121914060
:1014C00008432168886201210907A06B884229D05E
:1014D000A06B012826D0A06B022823D0A06B032884
:1014E00020D0A06B04281DD0A06B05281AD0A06BBB
:1014F000062817D0A06B072814D0A868216849696E
:101500004907490F88420DD020684069C008C000D3
:101510002168486120684069297A4907490F0843D2
:10152000216848612868102802D0286811283FD116
:10153000244880682968102901D1C90401E00121EB
:10154000890508431F4988602868102830D11E4942
:101550001E480068FEF7C6FD0A214843009002E0DD
:101560000098401E009000980028F9D120E02068E3
:10157000806A2A780121914088432168886228681E
:10158000102802D02868112812D10E4880682968D6
:10159000102902D1C90402E005E001218905884330
:1015A0000849886004E0606C2021084360640126DB
:1015B00000BF00214020015500BF30466BE700000E
:1015C000011000000027014040420F004C010020A4
:1015D00070B504460025002C01D1012070BD606C5F
:1015E0000221084360642046FEF73FFE0546002DB9
:1015F00007D12046FEF76FFE0546012D01D00120E0
:101600006064012D33D0206840689F2188432168A1
:1016100048609F20216808602068C068174908401A
:101620002168C8602068006980008008216808611E
:1016300020684069C008C000216848612068006ACD
:101640000F490840216808622068806AC00CC00405
:10165000216888620B48806803218905884309490D
:101660008860204600F0F4F80020A064606400BFA9
:1016700000214020015500BF2846AFE700023E830D
:1016800000F000F00027014001460868006C704738
:1016900070B5044600260025002C01D1012070BD44
:1016A000606C002806D1A06400214020015520462E
:1016B00000F0ECF8606C1021084000287ED1002E6C
:1016C000FCD1206880680421084080080028F5D1FA
:1016D000606C890188430221084360642068806847
:1016E0008007800F01280DD120680068C007C00F57
:1016F000002805D12068C06889030840884201D1CC
:10170000012000E0002000280FD12068C0681821C7
:101710008843A16808432168C86020680069800088
:10172000800861680843216808612068C0684649EC
:1017300008402168C860A0698003E169C9030843C3
:10174000216A49030843616B012902D00121090381
:1017500000E000210843E16808432169022901D122
:10176000042100E000210843216B490008430543A0
:10177000606A01280ED1206A002803D101200004EC
:10178000054307E0606C202108436064A06C0121E0
:101790000843A064FF21C231A06A884203D0E16AF5
:1017A000A06A084305432068C06828432168C860D0
:1017B00001210907A06B884216D000E03DE0A06B34
:1017C000012811D0A06B02280ED0A06B03280BD0EB
:1017D000A06B042808D0A06B052805D0A06B0628B4
:1017E00002D0A06B07280DD120684069C008C00056
:1017F0002168486120684069218F4907490F0843E3
:10180000216848612068C06810490840A84208D192
:101810000020A064606C02218843012108436064B9
:1018200010E0606C02218843102108436064A06CC2
:1018300001210843A064012604E0606C10210843E4
:101840006064012630462AE71902FEFFE7FF3F8366
:1018500010B504460C48C0680121490208430A49F2
:10186000C8600846C068491588430749C8600846EB
:101870008069491588430449886101210920C0060F
:1018800000F0F2F910BD00000010024010B586B063
:10189000044600BF14484069012149040843124925
:1018A000486108464069012149040840009000BF92
:1018B00000BF00BF0C488069091208430A498861CB
:1018C0000846806949150840009000BF00BF01200C
:1018D0000190032002900020039001A90920C00676
:1018E00000F06CFA06B010BD00100240F8B50446D6
:1018F0000D466069082801D1082711E02068C068FA
:10190000C007C00F00280AD0606C20210843606423
:1019100000BF00214020015500BF0120F8BD0C2769
:1019200000F058FB064614E0681C002811D0002D7A
:1019300004D000F04FFB801BA8420AD9606C042140
:101940000843606400BF00214020015500BF032010
:10195000E4E72068006838400028E5D0606C012189
:101960004902084360642068C06803218902084076
:10197000002825D1206A002822D12068006808218B
:10198000084008281CD1206880680421084080088D
:1019900000280DD1206840680C21884321684860E8
:1019A000606CFF210131884301210843606407E036
:1019B000606C202108436064A06C01210843A0648E
:1019C000A069002802D10C20216808600020A5E74A
:1019D00070B504460025206880680421084080080E
:1019E00000282BD100BF4020005D012801D102203A
:1019F00070BD01214020015500BFE069012803D0DE
:101A00002046FEF7BDFC0546002D18D1606C0D493F
:101A10000840FF210131084360640020A06400BF3A
:101A200000214020015500BF1C202168086020686B
:101A30008068042108432168886000E00225284668
:101A4000D6E70000FEF1FFFF70B504460025212017
:101A5000005D022803D00420A06301251EE0206859
:101A600000680E21884321680860206800684008EB
:101A70004000216808600120216C8840E16B4860CB
:101A800001212120015500BF00212020015500BF68
:101A9000606B002802D02046616B8847284670BDE5
:101AA00031B500F097FA0546009C601C002800D074
:101AB000641C00BF00F08EFA401BA042FAD338BD70
:101AC000F8B504460E460127002500BF2448007ED5
:101AD000012801D10220F8BD01202149087600BF6C
:101AE0002068012811D11F48FFF77EFB002830D164
:101AF000FFF71CFB1B48FFF777FB07461A480069F6
:101B0000042188431849086123E01648FFF76CFB5D
:101B100000281ED1401E3060656813E02846FFF79C
:101B200019FB1048FFF760FB07460F4800690221C8
:101B300088430D490861002F01D0356008E001207D
:101B400080022D18A068800261684018A842E5D87C
:101B500000BF00BF00200249087600BF3846BAE740
:101B6000F003002050C30000002002400348006939
:101B7000802108430149086100207047002002408D
:101B8000F0B51FB486B0074615461E4601200390E7
:101B900000240020029000BF2548007E012802D1C9
:101BA00002200BB0F0BD01202149087600BF21487A
:101BB000FFF71AFB03900398002831D1012F02D1BF
:101BC0000120029006E0022F02D10220029001E0E3
:101BD0000420029000241FE022012846314604968A
:101BE0000595FEF795FA80B26100019007980818F4
:101BF00000900199FFF7C4FA0E48FFF7F5FA039039
:101C00000D480069400840000B490861039800280E
:101C100000D004E0601CC4B202988442DCDB00BF48
:101C200000BF00200249087600BF0398B9E7000012
:101C3000F003002050C30000002002400748006964
:101C400080210840002805D005480449486005481F
:101C5000486001E0012070470020FCE700200240BE
:101C600023016745AB89EFCDF0B502460B46002056
:101C7000002100246FE0012585401D4029460029F0
:101C800068D0156847000326BE40B5431560C508F7
:101C9000AE0015462035AD594607F70E0F26BE405B
:101CA000B543C608B60017462037BD5195684700B2
:101CB0000326BE40B5439560556801268640B5436E
:101CC0005560D56847000326BE40B543D560244D16
:101CD0008608B600AC5985072E0F0F25B5402C405D
:101CE0000925ED06AA4201D100250FE01D4DAA42AB
:101CF00001D101250AE01C4DAA4201D1022505E0CF
:101D00001A4DAA4201D1032500E005258607360FAA
:101D1000B540A5421ED185072E0F0F25B5402C4694
:101D20000F4D8608B600AD59A5430D4E8708BF007C
:101D3000F5510F4D2D688D430D4E356035466D685C
:101D40008D4375603546AD688D43B5603546ED68A9
:101D50008D43F560401C1D46C540002D8BD1F0BD64
:101D6000080001400004004800080048000C00483A
:101D70000004014010B50446402C0BD1402109203D
:101D8000C00600F013F9002801D1012000E0002076
:101D90000149087010BD00003701002010B504464D
:101DA000054840692040002804D00348446120468B
:101DB000FFF7E0FF10BD00000004014078B50346C6
:101DC000002200240020DEE0012696400D68354008
:101DD0002C46002C7ED04D68022D02D04D68122D6D
:101DE00015D1D508AE001D462035A8595507EE0E71
:101DF0000F25B5400646AE4330465607F60E0D6930
:101E0000B5402843D508AD001E46203670511868ED
:101E100056000325B5400646AE4330460D79AD0762
:101E2000AD0F5600B540284318604D68012D08D00D
:101E30004D68022D05D04D68112D02D04D68122D30
:101E400018D1986856000325B5400646AE43304683
:101E50005600CD68B54028439860586801259540E4
:101E60000646AE43304610264D6835402D09954054
:101E700028435860D86856000325B5400646AE434F
:101E8000304656008D68B5402843D8600126360795
:101E90004D683540B54275D100BF3E4DAD69012654
:101EA00035433C4EB5613546AD69ED07ED0F009504
:101EB00000BF00BF384D9608B600A85995072E0FF1
:101EC0000F25B5400646AE4330460925ED06AB4228
:101ED00003D100E056E000250FE0304DAB4201D1C8
:101EE00001250AE02E4DAB4201D1022505E02D4D22
:101EF000AB4201D1032500E005259607360FB5401A
:101F00002843254D9608B600A851274D2868054658
:101F1000A5432846012636044D683540B54202D116
:101F2000054625432846204D286068680546A54398
:101F30002846012676044D683540B54202D1054653
:101F400025432846184D6860A8680546A5432846DD
:101F5000012636054D683540B54202D10546254378
:101F60002846114DA860E8680546A5432846012685
:101F700076054D683540B54202D1054625432846D1
:101F8000094DE860521C0D68D540002D00D01BE7BC
:101F900078BD000000100240080001400004004825
:101FA00000080048000C0048000401400246136984
:101FB0000B40002B01D0012000E000207047426957
:101FC0004A4042617047002A01D0816100E081628D
:101FD0007047000001480068704700004801002079
:101FE00070B50446002C01D1012070BD1448216851
:101FF00008601448216808602168606848602168AA
:10200000A0688860FFF7E6FF054606E0FFF7E2FFFD
:10201000401B272801D90320E7E72068C068002873
:10202000F4D120680169E068814203D02168E0684A
:10203000086102E00448216808600020D5E700003C
:10204000CCCC000055550000AAAA00000146024869
:102050000A68106000207047AAAA000002480068C1
:10206000401C0149086070474801002010B506482F
:1020700000681021084304490860032000F006F8B6
:1020800000F017F8002010BD0020024070B5044693
:1020900000F0F0F806467D21C900FEF723F805465A
:1020A00001F07EFA00222146501E00F00FF80020B9
:1020B00070BD704700BFC206D20E01219140024A96
:1020C000116000BF7047000000E100E070B50446F9
:1020D0000D4616462946204602F072FA70BD0000F1
:1020E00070B504460D4600265D480068C007C00F65
:1020F000A8420ED25A480068400840002843584978
:10210000086008460068C007C00FA84201D001203F
:1021100070BD022120680840022807D1514840685C
:10212000F0218843A16808434E4948602078C007E1
:10213000C00F00285FD06068012808D149480068B6
:10214000012149040840002815D10120E0E760681A
:10215000022808D1434800680121490608400028A8
:1021600009D10120D4E73F48006802210840002837
:1021700001D10120CCE73B484068800880006168BD
:10218000084338494860FFF725FF06466068012884
:102190000FD107E0FFF71EFF801B3349884201D9AA
:1021A0000320B5E72F4840680C2108400428F1D1EE
:1021B00021E0606802280FD107E0FFF70BFF801BCA
:1021C0002949884201D90320A2E7264840680C210A
:1021D00008400828F1D10EE007E0FFF7FBFE801B66
:1021E0002149884201D9032092E71E4840680C210A
:1021F00008400028F1D11A480068C007C00FA84263
:102200000ED9174800684008400028431449086068
:1022100008460068C007C00FA84201D0012077E738
:10222000042120680840042808D10E48406807218E
:1022300009028843E16808430A49486000F032F81F
:1022400008494968F02211400909084A515CC84010
:10225000074908600320FFF719FF002058E7000036
:10226000002002400010024088130000FC6A0008B1
:102270004C01002001480068704700004C0100201C
:1022800000B5FFF7F7FF0549496807221202114020
:10229000090A034A515CC84000BD0000001002401A
:1022A0000C6B0008F0B589B024A001460EC9C068C7
:1022B00005AC0EC4089025A001460EC9C06801AC4B
:1022C0000EC4049000240027002500260020009062
:1022D000224844680C202040002827D0042802D03F
:1022E000082822D102E01E48009022E00F2080043E
:1022F0002040800C05A90E5C1848C06A0007000F3A
:1023000001A90F5C0120000420400121090488423A
:1023100006D139461248FDF7E5FE7043054602E056
:10232000104835464543009503E000BF0C48009037
:1023300000BF00BF009809B0F0BD00000203040513
:10234000060708090A0B0C0D0E0F101001020304FA
:1023500005060708090A0B0C0D0E0F1000100240AD
:1023600000127A0000093D0070B586B005460C46A3
:102370001646022002900320049000200390FF20C4
:10238000013001900020059000BF0F4840690121F5
:10239000490408430C494861084640690121490441
:1023A0000840009000BF00BF01A90920C006FFF748
:1023B00005FD054840680F2109068843204302496E
:1023C000486006B070BD000000100240F8B5044639
:1023D00000252078C007C00F002871D0F948406858
:1023E0000C21084004280BD0F64840680840082813
:1023F00012D1F448406801210904084088420BD1F9
:10240000F048006801214904084000286BD060684A
:10241000002868D10120F8BD00BF6068012807D1FD
:10242000E8480068012109040843E649086031E0F2
:10243000606800280ED1E348006801210904884340
:10244000E049086008460068012189048843DD49A5
:1024500008601FE0606805280ED1DA480068012195
:1024600089040843D7490860084600680121090427
:102470000843D44908600DE0D248006801210904EE
:102480008843D049086008460068012189048843D0
:10249000CC49086000BF6068002812D0FFF79AFDA1
:1024A000054606E0FFF796FD401B642801D903208E
:1024B000B1E7C44800680121490408400028F1D070
:1024C00011E0FFF787FD054606E0FFF783FD401B9F
:1024D000642801D903209EE7BA4800680121490415
:1024E00008400028F1D1022120680840022861D16B
:1024F000B44840680C21084000280BD0B14840681F
:10250000084008281BD1AF48406801210904084051
:10251000002814D1AB48006802210840002804D0EC
:10252000E068012801D0012075E7A6480068F8217D
:1025300088432169C9000843A24908603AE0E0687D
:10254000002820D09F480068012108439D49086069
:10255000FFF740FD054606E0FFF73CFD401B022863
:1025600001D9032057E79748006802210840002856
:10257000F2D094480068F82188432169C9000843D3
:102580009049086016E08F480068400840008D4977
:102590000860FFF71FFD054606E0FFF71BFD401B27
:1025A000022801D9032036E7864800680221084046
:1025B0000028F2D1082120680840082831D1E069BC
:1025C000002817D07F48406A012108437D494862AE
:1025D000FFF700FD054606E0FFF7FCFC401B022864
:1025E00001D9032017E77748406A022108400028F4
:1025F000F2D016E07348406A4008400071494862D2
:10260000FFF7E8FC054606E0FFF7E4FC401B022864
:1026100001D90320FFE66B48406A022108400028E8
:10262000F2D1042120680840042871D100266548B1
:10263000C0698906084000280DD100BF6148C06903
:1026400008436049C8610846C06909040840009011
:1026500000BF00BF01265C480068FF21013108402F
:10266000002816D158480068084357490860FFF70A
:10267000B1FC054606E0FFF7ADFC401B642801D91C
:102680000320C8E650480068FF21013108400028B7
:10269000F1D000BFA068012806D14A48006A012194
:1026A0000843484908622BE0A06800280CD145483F
:1026B000006A40084000434908620846006A042155
:1026C0008843404908621BE0A06805280CD13D48BA
:1026D000006A042108433B4908620846006A012158
:1026E0000843384908620BE03648006A4008400059
:1026F000344908620846006A042188433149086267
:1027000000BFA068002813D0FFF764FC054608E06E
:1027100029E0FFF75FFC401B2C49884201D90320C8
:1027200079E62848006A022108400028F1D011E02B
:10273000FFF750FC054607E0FFF74CFC401B234920
:10274000884201D9032066E61E48006A022108403B
:102750000028F1D1012E05D11A48C06931078843FC
:102760001849C86100BF10212068084010285FD1B7
:10277000606901282CD11348406B0421084311499A
:1027800048630846406B012108430E494863FFF740
:1027900021FC054606E0FFF71DFC401B022801D97D
:1027A000032038E60748406B022108400028F2D099
:1027B0000448406BF8218843A169C90008430149D6
:1027C000486335E0001002400070004088130000AC
:1027D0006069401D00280FD14E48406B042188439A
:1027E0004C4948630846406BF8218843A169C900F9
:1027F0000843484948631BE04648406B04210843AE
:10280000444948630846406B400840004863FFF76E
:10281000E1FB054606E0FFF7DDFB401B022801D97E
:102820000320F8E53B48406B022108400028F2D124
:10283000206A00286CD0374840680C2108400828DE
:1028400064D0206A022847D1324800680121090675
:10285000884330490860FFF7BDFB054606E0FFF7F7
:10286000B9FB401B022801D90320D4E529480068A0
:102870000121490608400028F1D100BF2548C06A5F
:1028800000090001E16A08432249C862616AA06A3E
:102890000843204949683D221204914308431D49D9
:1028A000486000BF0846006801210906084319492D
:1028B0000860FFF78FFB054606E0FFF78BFB401B28
:1028C000022801D90320A6E5124800680121490623
:1028D00008400028F1D01BE00E48006801210906DD
:1028E00088430C490860FFF775FB054606E0FFF7D3
:1028F00071FB401B022801D903208CE505480068C4
:102900000121490608400028F1D101E0012082E5BB
:10291000002080E5001002400221014A116070474A
:10292000F4000020F8B504462068466820688568F1
:102930004020284000280BD1E807C00F002807D00E
:1029400040203040002803D02046E16C8847F8BD85
:1029500002202840002807D080203040002803D0E3
:102960002046216D8847F2E7FF206130284000288B
:102970007FD02020304000287BD0402028400028F5
:102980001ED05D20005D03280ED0206E0421084378
:10299000206600BF002000902068C068009020687A
:1029A0008068009000BF0BE000BF0020009020680E
:1029B000C068009020688068009000BF00BFC6E734
:1029C00020202840002811D0206E012108432066D5
:1029D00000BF002000902068806800902068006898
:1029E000402188432168086000BF00BFFF200130FC
:1029F000284000280BD0206E08210843206600BF25
:102A00000020009020688068009000BF00BF206E0A
:102A100000282DD020684068E02188432168486064
:102A200001215D20015502203040002803D1F0072C
:102A3000C00F002819D020684068800880002168F5
:102A40004860A06D002805D00B48A16D4863A06DBB
:102A5000FEF7FAFF606D00280AD00748616D4863F1
:102A6000606DFEF7F1FF03E003E02046FFF754FF3F
:102A70006DE700BF6BE700000747000870B504462C
:102A8000002C01D1012070BD606A002800D100BF78
:102A900001214903A06A884200D100BF5D20005D8A
:102AA000002805D100215C200155204600F06CF87B
:102AB00002215D200155206800684021884321687B
:102AC000086007210902E068884201D9002501E079
:102AD00001252D030F210902E068884206D0072155
:102AE0000902E068884201D00021A162206B002821
:102AF00009D107210902E068884202D90221216335
:102B000001E001212163A16860680843216908434D
:102B10006169084301225202A16911400843E16939
:102B20000843216A0843A16A084321680860206BB2
:102B3000022805D1206800689100084321680860D8
:102B4000A069000C04210840616A0843616B0843D6
:102B5000E168084328432168486001214903A06ACD
:102B6000884202D12168E06A08612068C0690121B9
:102B7000C90288432168C8610020206601215D20C8
:102B8000015500207FE7000010B586B004463C499F
:102B90002068884272D100BF3A4840690121490447
:102BA0000843384948610846406901214904084002
:102BB000009000BF00BF00BF324840694900084391
:102BC0003049486108464069012189040840009065
:102BD00000BF00BF00BF2B48406908432949486136
:102BE00008464069012189040840009000BF00BFE9
:102BF00000BF2448406908432249486108464069AB
:102C0000012189040840009000BF00BF00BF1D489B
:102C10008069891108431B498861084680698914C5
:102C20000840009000BF00BFC80001900120029042
:102C3000002003900320049001A90920C006FFF79B
:102C4000BDF8082001900220029003900320049018
:102C50000020059001A90C48FFF7B0F81020019062
:102C60000020059001A90848FFF7A8F8202001904E
:102C70000020059001A90448FFF7A0F806B010BD98
:102C8000003001400010024000040048F0B585B05B
:102C900004460D4617461E46002003900290019000
:102CA00007210902E068884201D8012F00D900BF3E
:102CB000FF210531606888420ED1A06800280BD141
:102CC00004215D2001553B462A46294620460096B0
:102CD00000F058FA05B0F0BD00BF5C20005D01288F
:102CE00001D10220F6E701215C20015500BFFFF76A
:102CF00071F902905D20005D012802D00220019050
:102D000026E1002D01D0002F02D1012001901FE10A
:102D100004215D20015500202066256444200753CE
:102D2000462007530020A063A087E087E064206569
:102D3000C902A06A884213D100BF20680068884396
:102D40002168086020680068012149030843216860
:102D5000086000BF4620005B401E81B24620015340
:102D600007210902E068884207D9206840680121EC
:102D7000090388432168486006E020684068012113
:102D800009030843216848600121C903A0688842FB
:102D900005D12068006849108843216808602068D0
:102DA000006840210840402804D02068006808439B
:102DB0002168086007210902E068884224D81EE0E3
:102DC00020688068C007C00F00280AD02068007BF8
:102DD00028706D1C4620005B401E81B246200153C6
:102DE0000DE0002E08D0701C002808D0FFF7F2F884
:102DF0000299401AB04202D303200190A8E0462075
:102E0000005B0028DCD123E01EE020688068C0075A
:102E1000C00F00280AD02068C0682880AD1C46205A
:102E2000005B401E81B2462001530DE0002E08D009
:102E3000701C002808D0FFF7CDF80299401AB04264
:102E400002D30320019083E04620005B0028DCD100
:102E500001214903A06A88425ED1206800684910B8
:102E60000843216808600298334601221146009009
:102E7000204601F093FD002802D00320019067E076
:102E800007210902E068884203D92068C0682880C9
:102E900002E02068007B2870029833460122114628
:102EA0000090204601F07AFD002806D0206E022115
:102EB00008432066032001904AE00F210902E068E0
:102EC000884206D12068C06881B203916846808933
:102ED00022E02068017B039168468089072109026E
:102EE000E068884218D1206B022815D10298334639
:102EF000012211460090204601F050FD002806D026
:102F0000206E0221084320660320019020E0206803
:102F1000017B03916846808931462046029A01F080
:102F2000FEFB002801D02020206620688068102148
:102F30000840102806D1206E022108432066094867
:102F400021688860206E002801D00120019000BF18
:102F500001215D20015500BF00215C20015500BF0B
:102F60000198B7E6EFFF0000FEB504460D46174690
:102F70001E4600200290019007210902E068884265
:102F800001D8012F00D900BF00BF5C20005D0128DF
:102F900001D10220FEBD01215C20015500BFFFF7D9
:102FA00019F802905D20005D012802D002200190F6
:102FB000DDE0002D01D0002F02D101200190D6E0EC
:102FC00003215D20015500202066A563A787E787C0
:102FD0002064002144200153462001530020206535
:102FE000E0640121C903A068884205D12068006817
:102FF000491008432168086001214903A06A8842FA
:103000000DD100BF206800688843216808602068EF
:1030100000680121490308432168086000BF206857
:10302000006840210840402804D020680068084318
:103030002168086007210902E06888422DD960688C
:10304000002802D0E08F012806D128882168C860B6
:10305000AD1CE08F401EE0871BE0206880680221E5
:103060000840022807D128882168C860AD1CE08F7D
:10307000401EE0870DE0002E08D0701C002808D00C
:10308000FEF7A8FF0299401AB04202D30320019034
:103090006DE0E08F0028E0D142E06068002802D0B7
:1030A000E08F012811D1E08F012807D928882168F5
:1030B000C860AD1CE08F801EE08706E0287821689C
:1030C00008736D1CE08F401EE08726E02068806852
:1030D00002210840022812D1E08F012807D9288850
:1030E0002168C860AD1CE08F801EE08715E028785D
:1030F000216808736D1CE08F401EE0870DE0002EF4
:1031000008D0701C002808D0FEF764FF0299401A0E
:10311000B04202D30320019029E0E08F0028D5D1EE
:1031200001214903A06A884205D12068006849103E
:1031300008432168086031462046029A01F036FBB8
:10314000002801D020202066A068002809D100BFF7
:1031500000902068C068009020688068009000BFE0
:1031600000BF206E002801D00120019000BF012186
:103170005D20015500BF00215C20015500BF019872
:1031800008E70000F0B587B004460D4616461F4616
:1031900000200690059004900390012002900020EA
:1031A000019007210902E068884201D8012F00D967
:1031B00000BF00BF5C20005D012802D1022007B0E3
:1031C000F0BD01215C20015500BFFEF703FF039015
:1031D0005D20005D069060680590069801280DD07E
:1031E000FF2105310598884205D1A068002802D149
:1031F0000698042802D002200190C5E1002D03D0DA
:10320000002E01D0002F02D101200190BCE15D20F1
:10321000005D042802D005215D20015500202066B4
:1032200026644620075344200753A563E787A787F2
:103230000020E064206501214903A06A88420DD185
:1032400000BF206800688843216808602068006823
:103250000121490308432168086000BF07210902D2
:10326000E068884203D84620005B012807D920681F
:1032700040680121090388432168486006E020680E
:1032800040680121090308432168486020680068FC
:1032900040210840402804D0206800680843216885
:1032A000086007210902E068884270D96068002838
:1032B00002D0E08F012806D128882168C860AD1CA3
:1032C000E08F401EE08759E00298002832D0E08F5E
:1032D00000282FD02068806802210840022829D1C8
:1032E00028882168C860AD1CE08F401EE087002060
:1032F0000290E08F00281DD101214903A06A884275
:1033000018D1206800680421084000280BD12068EB
:10331000406808210840082805D120680068890114
:1033200008432168086020680068012109030843F8
:10333000216808604620005B002811D02068806862
:10334000C007C00F00280BD02068C0683080B61CB2
:103350004620005B401E81B24620015301200290AE
:103360000C98401C002809D0FEF734FE0399411A3E
:103370000C98814202D30320019005E1E08F0028E0
:10338000A2D14620005B00289ED19FE0FFE7606845
:10339000002802D0E08F012811D1E08F012807D941
:1033A00028882168C860AD1CE08F801EE08706E099
:1033B0002878216808736D1CE08F401EE0877DE04F
:1033C000029800283DD0E08F00283AD0206880681D
:1033D00002210840022834D1E08F012807D928882B
:1033E0002168C860AD1CE08F801EE08706E0287869
:1033F000216808736D1CE08F401EE087002002905A
:10340000E08F00281DD101214903A06A884218D10C
:10341000206800680421084000280BD1206840681B
:1034200008210840082805D1206800688901084360
:1034300021680860206800680121090308432168A9
:1034400008604620005B00282AD020688068C007FA
:10345000C00F002824D04620005B012814D9206822
:10346000C0683080B61C4620005B801E81B24620BA
:103470000153005B012811D820684068012109032D
:1034800008432168486009E02068007B3070761CA2
:103490004620005B401E81B246200153012002906D
:1034A0000C98401C002809D0FEF794FD0399411A9E
:1034B0000C98814202D30320019065E0E08F002840
:1034C00000D07DE74620005B0028FAD101214903A6
:1034D000A06A88423AD10398009001221146204602
:1034E0000C9B01F05BFA002806D0206E02210843F5
:1034F00020660320019047E00F210902E06888421E
:1035000006D12068C06881B204916846008A1DE037
:103510002068017B04916846008A206B022815D13F
:10352000039800900122114620460C9B01F036FAC8
:10353000002806D0206E0221084320660320019057
:1035400022E02068017B04916846008A2068806838
:1035500010210840102808D1206E0221084320665F
:103560000E4821688860012001902046039A0C993A
:1035700001F01CF9002801D020202066206E0028D0
:1035800001D00120019000BF01215D20015500BF45
:1035900000215C20015500BF019810E6EFFF0000FC
:1035A00070B504462546681E0949884201D90120A4
:1035B0000CE0681E074948610321081F01F000F86C
:1035C00000200449886107200861002070BD0000C8
:1035D000FFFFFF0000E000E070477047024600BFB9
:1035E0003C20805C012801D10220704701233C204F
:1035F000835400BF106801653D20835400BF002341
:103600003C20835400BF0020EFE710B50446002C97
:1036100001D1012010BD3D20005D002805D1002111
:103620003C200155204600F00DF802213D200155B7
:10363000211D206801F07AFA01213D20015500206A
:10364000E8E7000038B5044600BF0C488069012156
:103650000904084309498861084680690121090471
:103660000840009000BF00BF002203211420FEF795
:103670002DFD1420FEF71EFD38BD00000010024095
:1036800001460868C068012210430A68D0600868D3
:103690000068012210430A68106000207047000093
:1036A00070B5064600250021124800F09FFA81B24D
:1036B00011480468601C104A106060000F4A1152E3
:1036C0000D480068022813D310460088691E081AA6
:1036D000114649884018401C85B2294608480068B0
:1036E000FCF700FD0749086008460068C000086054
:1036F00070BD0000B0030020400100203801002010
:103700004C0100203C010020F8B504460D46164649
:1037100000BF3C20005D012801D10220F8BD01213D
:103720003C20015500BF02213D200155002E12D141
:10373000EB686A682968206801F056FA2068806999
:103740000C2188432168886120688069A968084342
:10375000216888613FE0042E14D1EB686A6829680B
:10376000206801F079FA2068806903218902884382
:103770002168886120688069A96809020843216876
:10378000886128E0082E12D1EB686A6829682068F1
:1037900001F088FA2068C0690C2188432168C8615B
:1037A0002068C069A96808432168C86113E0EB6814
:1037B0006A682968206801F09AFA2068C0690321C4
:1037C000890288432168C8612068C069A968090224
:1037D00008432168C86101213D20015500BF002137
:1037E0003C20015500BF002098E7000010B50446BA
:1037F00002213D20015500BF2068006A0E490840A3
:1038000000280BD12068006A89100840002805D1E3
:1038100020680068400840002168086000BF20461A
:1038200000F028F800213D20015500BF3C20015543
:1038300000BF002010BD00001111000010B50446AB
:10384000002C01D1012010BD3D20005D002805D1D4
:1038500000213C200155204600F00EF802213D20B9
:103860000155211D206801F061F901213D2001551C
:103870000020E8E77047000010B58EB0044608202D
:10388000029000200A900120099002A8FEF79EFDF8
:10389000002801D0FDF743FC00BF0C48C069FF21A0
:1038A000013108430949C8610846C06989150840C3
:1038B000019000BF00BF002211461320FEF706FC56
:1038C0001320FEF7F7FB0EB010BD00000010024001
:1038D00030B504460D46002D06D0042D0BD0082D22
:1038E00010D00C2D1CD114E02068C06802210843C0
:1038F0002168C86015E02068C06804210843216879
:10390000C8600EE02068C068082108432168C860CC
:1039100007E02068C068102108432168C86000E003
:1039200000BF00BF01222946206801F04FF920683E
:1039300000680121084321680860002030BD0000B4
:1039400030B504460D46002D06D0042D0BD0082DB1
:1039500010D00C2D1CD114E02068C06802218843CF
:103960002168C86015E02068C06804218843216888
:10397000C8600EE02068C068082188432168C860DC
:1039800007E02068C068102188432168C86000E013
:1039900000BF00BF00222946206801F017F900BFD0
:1039A0002068006A0949084000280BD12068006A95
:1039B00089100840002805D12068006840084000B0
:1039C0002168086000BF002030BD00001111000018
:1039D00010B504462068006902210840400800280C
:1039E0001CD02068C06808404008002816D0481F36
:1039F0002168086101202077206880698007800F96
:103A0000002803D02046FFF74BFE05E0204600F0DB
:103A1000C3F8204600F0C1F8002020772068006934
:103A200004210840800800281DD02068C068084094
:103A30008008002817D0C843216808610220207739
:103A400020688069032109020840002803D020462D
:103A5000FFF726FE05E0204600F09EF8204600F025
:103A60009CF8002020772068006908210840C008E1
:103A700000281CD02068C0680840C008002816D064
:103A8000C84321680861042020772068C069800746
:103A9000800F002803D02046FFF702FE05E02046F5
:103AA00000F07AF8204600F078F8002020772068AF
:103AB000006910210840000900281DD02068C06856
:103AC00008400009002817D0C84321680861082071
:103AD00020772068C069032109020840002803D02C
:103AE0002046FFF7DDFD05E0204600F055F82046B2
:103AF00000F053F80020207720680069C007C00F4D
:103B000001214840484000280CD02068C068084087
:103B100048404840002805D0C81E2168086120465A
:103B200000F03CF82068006980210840C0090028A6
:103B30000BD02068C0680840C009002805D0C843E1
:103B4000216808612046FFF747FD20680069402191
:103B50000840800900280BD02068C0680840800910
:103B6000002805D0C84321680861204600F06AF8A3
:103B70002068006920210840400900280BD02068F7
:103B8000C06808404009002805D0C8432168086182
:103B90002046FFF722FD10BD7047704710B5044660
:103BA0000F4801680068401C0D4A10607D20C0006D
:103BB000814204D1002011460860FCF7CBFE094881
:103BC000006800280BD007480068401E05490860BF
:103BD00008460068002802D101200349087010BD82
:103BE000E8000020EC000020CC00002010B50246C8
:103BF000002300BF3C20805C012801D1022010BDC1
:103C000001243C20845400BF002906D0042907D099
:103C1000082908D00C290CD108E01068436B09E092
:103C20001068836B06E01068C36B03E01068036CD8
:103C300000E000BF00BF00BF00243C20845400BF50
:103C40001846DCE77047000010B504460D492068AF
:103C5000884202D1FDF763FA13E00B4920688842DD
:103C60000FD120680068FF21213188432168086056
:103C700020688068400840002168886020216A2010
:103C8000015510BD0044004000380140F8B504461D
:103C90002068C569206806682807000F0090009812
:103CA00000280BD120202840002807D020203040B9
:103CB000002803D0204601F021F9F8BD206887686C
:103CC000009800287ED0F807C00F002804D1FF20FC
:103CD000213030400028F5D0E807C00F00280BD075
:103CE000FF2001303040002806D001202168086202
:103CF000E06E01210843E0660220284000280AD037
:103D0000F807C00F002806D0022021680862E06E84
:103D100004210843E0660420284000280AD0F80760
:103D2000C00F002806D0042021680862E06E02213E
:103D30000843E0660820284000280ED020203040AC
:103D4000002803D1F807C00F002806D008202168FA
:103D50000862E06E08210843E066E06E002841D06A
:103D600020202840002806D020203040002802D003
:103D7000204601F0C3F8E06E08210840002805D174
:103D80002068806840210840002826D0204601F0A5
:103D900094F82068806840210840002819D02068E5
:103DA0008068884321688860606E00280DD01B48B9
:103DB000616E4863606EFDF747FE002812D0606EAA
:103DC000416B00E00FE088470CE02046FFF73CFF26
:103DD00008E02046FFF738FF04E02046FFF734FFF5
:103DE0000020E06669E780202840002807D0802076
:103DF0003040002803D0204601F0BAF95DE74020AA
:103E00002840002807D040203040002803D020461A
:103E100001F064F851E700BF4FE70000A34E00082F
:103E200010B50446002C01D1012010BDA069002866
:103E300000D000E000BF6920005D002805D100210E
:103E400068200155204600F02DF8242169200155F5
:103E5000206800684008400021680860204601F0A2
:103E600095F8012800D1E0E7606A002802D02046DA
:103E700000F090FF206840680121C9028843216852
:103E8000486020688068082188432168886020682D
:103E900000680121084321680860204600F0F2FF15
:103EA000C3E7000010B586B0044653492068884235
:103EB0004CD100BF514840690121490408434F4992
:103EC000486108464069012149040840009000BF4C
:103ED00000BF00BF49484069084348494861084657
:103EE0004069012149040840009000BF00BF00BFA5
:103EF0004248C06908434149C8610846C069012178
:103F000049040840009000BF00BF04200190022037
:103F1000029001200390032004900120059001A944
:103F20000920C006FDF74AFF0820019001200590F6
:103F300001A90920C006FDF741FF012200211C2034
:103F4000FEF7C4F81C20FEF7B5F852E02C492068B3
:103F500088424ED100BF29484069012149040843E5
:103F600026494861084640690121490408400090FB
:103F700000BF00BF00BF2148406908431F49486196
:103F800008464069012149040840009000BF00BF75
:103F900000BF1A488069C91008431849886108465B
:103FA0008069012189030840009000BF00BF4811CB
:103FB0000190022002900120039003200490012030
:103FC000059001A90920C006FDF7F8FE0120800236
:103FD00001900120059001A90920C006FDF7EEFE21
:103FE000012200211B20FEF771F81B20FEF762F86A
:103FF00000BF06B010BD00000044004000100240A9
:1040000000380140034A0168914202D10121024A6D
:104010001170704700440040F000002010B50346C6
:104020006920C05C202835D1002901D0002A01D1A7
:10403000012010BD012424039868A04208D118690A
:10404000002805D1C807C00F002801D00120F0E7E3
:1040500000BF6820C05C012801D10220E9E70124EB
:104060006820C45400BFD9645020C2525220C252AA
:104070000020D86621246920C45400BF0024682091
:10408000C45400BF18680068802420431C68206066
:104090000020CEE70220CCE7074A0168914203D115
:1040A0000121064A117006E0054A0168914202D1D9
:1040B0000121044A1170704700440040F0000020C4
:1040C000003801403601002000BFFEE710B5094866
:1040D0000949086006204860084800684109064808
:1040E00081600749C160FDF77BFF002801D0FDF723
:1040F00016F810BD00300040A00300203C01002055
:10410000FF0F000010B50448FDF7A0FF002801D004
:10411000FDF705F810BD0000A003002070B50024D5
:104120001D4D00BF07E02846FDF7B2F81B490855B2
:104130002D1D601CC4B2042CF5DB002409E02846C8
:10414000FDF7A6F8C1B21548001D01552D1D601CD4
:10415000C4B2042CF3DB002409E02846FDF798F8EC
:10416000C1B20E48083001552D1D601CC4B2042C8C
:10417000F3DB2846FDF78CF80849C8812D1D284639
:10418000FDF786F8054908732D1D2846FDF780F8D0
:104190000249487370BD000004FC0008540100206F
:1041A00070B50024214DFDF749FD214801692846DD
:1041B000FDF776F82D1D00BF07E01D48015D28467C
:1041C000FDF76EF82D1D601CC4B2042CF5DB002435
:1041D00008E01748001D015D2846FDF761F82D1D18
:1041E000601CC4B2042CF4DB002408E01048083042
:1041F000015D2846FDF754F82D1D601CC4B2042C47
:10420000F4DB0B48C1892846FDF74AF82D1D084804
:10421000017B2846FDF744F82D1D0548417B2846C3
:10422000FDF73EF8FDF7A2FC70BD000000FC0008A1
:10423000540100207CB5164CFDF71EF8154D16A054
:104240000068019015A00068009015480199016070
:1042500000994160042213490830FBF76AFF0520EA
:104260000F49C88103200873487328460861204617
:10427000FDF70EF8A84208D0C8220B490BA001F0A8
:1042800017F9FCF7E5FFFFF78BFFFFF747FF7CBD52
:1042900000FC0008FEFEFEFE01030100010001001B
:1042A00054010020D4000020D86A0008B5DAD2BB3F
:1042B000B4CEB3F5CABCBBAF5B25735D5B25645D53
:1042C0000D0A00003EB504460848C07907498979BF
:1042D000064A52790092019102900448037904A29F
:1042E0000521204601F0F4F83EBD000054010020F5
:1042F0002563256325632563000000001FB5044680
:1043000000230948C07A0849897A074A527A0393F8
:104310000092019102900448037A04A205212046EC
:1043200001F0D6F81FBD000054010020256325636D
:1043300025632563256300003EB504460848C07820
:1043400007498978064A5278009201910290044800
:10435000037804A20521204601F0BAF83EBD000012
:1043600054010020256325632563256300000000B8
:104370000149C989018070475401002010B50446E5
:10438000042221460348FBF7D4FEFCF761FFFFF748
:1043900007FF10BD5C01002010B5044620880649C7
:1043A000C8812388E522054905A001F081F8FCF7C2
:1043B0004FFFFFF7F5FE10BD54010020E86A00082A
:1043C0005B25735D5B25645D3A25640D0A00000082
:1043D00010B500F07BF815490978884216D01348CB
:1043E0000078012809D100F0DFF8104840887D21CD
:1043F000C90048430E49086008E00C4800780028CE
:1044000004D100F0C7F80020094908600948007885
:1044100001280AD100200749087000F0BBF80020ED
:104420000249087001200449087010BDC80000202E
:10443000EC000020CC000020CD00002070B5054627
:104440000C46002C00D170BD002D04D0012D1DD0D4
:10445000022D32D126E02078012805D020780028CE
:1044600002D0FF202070EEE700F030F81649087007
:1044700008460078FF2800D1E5E72078124909783E
:10448000884202D020781049087019E06088052819
:1044900007DB6088FF212D31884202DC60880A49F1
:1044A00048800DE000F012F807490870084640887F
:1044B000608008460078207002E0FF20207000BF76
:1044C00000BF00BFBFE70000C800002010B5FBF729
:1044D000FDFF04460548844201DB002010BD002C8E
:1044E00001DB0120FAE70020C043F7E77A03000070
:1044F00000B587B000BF1F48406901218904084307
:104500001C4948610846406901218904084000901F
:1045100000BF00BF01200290039000200490032000
:10452000059002A91448FDF749FC00220121124818
:10453000FDF749FDFBF7D6FF01A8FFF719FF684615
:1045400080880E494880084641880DA000F0B0FFE1
:104550000A484088FF212D31884203DC0748408803
:10456000052802DA1E20054948800020034908700A
:1045700007B000BD0010024000040048C800002041
:10458000524C6F636B5F74696D653A2025640D0A48
:104590000000000010B5012211460248FDF713FD8E
:1045A00010BD00000004004810B50022012102489F
:1045B000FDF709FD10BD0000000400487047000031
:1045C00010B5002819DA1A4A03071B0F083B9B088D
:1045D0009B00D2588307DC0EFF23A3409A438B072E
:1045E0001B0E8407E40EA3401A43114B0407240F4B
:1045F000083CA408A4001A5118E00E4A03231B0229
:10460000D21883089B00D2588307DC0EFF23A340F7
:104610009A438B071B0E8407E40EA3401A43054BF5
:10462000032424021B198408A4001A5110BD0000A1
:104630001CED00E000E100E07047000010B5FDF760
:1046400015FD00F004FAFCF747F900F079FB00F0E3
:10465000D9FDFFF7EFFDFFF74BFFFBF787FF00F0FA
:10466000EFFD06A000F024FF05A000F021FF0FA041
:1046700000F01EFF02A000F01BFF10BD0A000000AA
:104680002A2A2A2A2A2A2A2A2A2A2A2A2A2A2A2A8A
:104690002A2A2A2A2A2A2A2A2A2A2A2A2A2A2A2A7A
:1046A0002A2A2A2A2A2A2A0A000000002A205B4DE8
:1046B00061696E5D3A2042696E676F42696E2042A1
:1046C000475F444F4F525F4C4F434B0A000000007E
:1046D00010B50248FEF726F910BD0000B002002018
:1046E0007047704710B50122D1030920C006FDF7BD
:1046F0006AFC10BD10B500220121C9030920C006C3
:10470000FDF761FC10BD70B505466C6A00214620BE
:1047100001530020E0872046FEF7FEF870BDF8B593
:1047200004460E461546FF210531606888420ED1C9
:104730000121C903A068884203D04911A0688842BA
:1047400005D120680068402188432168086033460D
:10475000002280212046009500F020F9002805D095
:10476000206E2021084320660320F8BDFF2105317B
:104770006068884218D10121C903A068884203D02B
:104780004911A06888420FD1334600220321490213
:104790002046009500F0A8F8002805D0206E2021C2
:1047A000084320660320E0E70020DEE7F8B5044672
:1047B0000E461546334600220321C90220460095C5
:1047C00000F092F8002805D0206E202108432066D2
:1047D0000320F8BD3346002280212046009500F0DA
:1047E000DDF8002805D0206E202108432066032034
:1047F000EFE733460022032149022046009500F0EE
:1048000073F8002805D0206E20210843206603207D
:10481000DFE70020DDE7000010B51248124908600C
:1048200008211148C16100218160416101610721B6
:104830000902C16000210162416281620721C162F7
:10484000012101634902816100214163FF2005309C
:10485000054948600846FEF711F9002801D0FCF729
:104860005EFC10BD00300140B002002008B500BF62
:104870000E4800688068C007C00F012148404840CA
:104880000028F5D17D231B01012269460748FEF768
:10489000FDF900BF05480068806880210840C00914
:1048A0000028F7D16846007808BD0000B00200205B
:1048B00001B500BF0B48006880680221084040082D
:1048C0000028F7D00023012269460648FEF74CFB7A
:1048D00000BF04480068806880210840C0090028A3
:1048E000F7D108BDB0020020F8B504460E461746C1
:1048F0001D464CE003204002864206D1002F04D121
:104900002068017B009168460078681C00283ED032
:10491000002D05D0FDF75EFB0699401AA84236D35C
:1049200020684068E021884321684860FF21053104
:10493000606888420ED10121C903A068884203D073
:104940004911A068884205D1206800684021884349
:104950002168086001214903A06A88420DD100BF87
:104960002068006888432168086020680068012189
:10497000490308432168086000BF01215D200155FB
:1049800000BF00215C20015500BF0320F8BD206856
:1049900080683040B842ADD10020F7E7F8B5044652
:1049A0000E4617461D4641E0681C00283ED0002DEB
:1049B00005D0FDF70FFB0699401AA84236D32068B0
:1049C0004068E021884321684860FF210531606824
:1049D00088420ED10121C903A068884203D0491141
:1049E000A068884205D1206800684021884321687A
:1049F000086001214903A06A88420DD100BF2068E8
:104A00000068884321680860206800680121490324
:104A100008432168086000BF01215D20015500BFE7
:104A200000215C20015500BF0320F8BD206880688C
:104A30003040B04201D1012000E00020B842B3D1A3
:104A40000020F2E7704710B5FDF708FB10BD00B578
:104A500091B001200190029002200990C1030A91B7
:104A600000210C91C1040B9101A8FDF7AFFC0028B7
:104A700001D000BFFEE707200D9002200E9000201D
:104A80000F90109001210DA8FDF72AFB002801D0FE
:104A900000BFFEE711B000BD1948006801210843BE
:104AA000174908600846406816490840144948609C
:104AB0000846006814490840114908600846006823
:104AC0000121890488430E490860084640683F2157
:104AD000090488430A4948600846C06A0009000181
:104AE000C8620846006BFF211431884304490863FB
:104AF0000846406B400840004863002088607047CB
:104B0000001002400CB8FF08FFFFF6FE10B5024887
:104B1000FEF75EFF10BD0000B003002010B5024894
:104B2000FEF756FF10BD00000002002010B5002265
:104B30000268204B984202D01F4B984205D1702446
:104B40001346A3431A464B681A431A4B98420ED099
:104B5000194B98420BD0194B984208D0184B9842E9
:104B600005D0184B984202D0174B984206D1032427
:104B700024021346A3431A46CB681A4380241346E3
:104B8000A3434C6923431A4602608B68C3620B68D7
:104B90008362084B984208D0094B984205D0094BD4
:104BA000984202D0084B984201D10B69036301235C
:104BB000436110BD002C0140000400400020004073
:104BC00000400140004401400048014030B500234E
:104BD00001248C402346046A9C430462046A1546FF
:104BE0008D402C43046230BDF0B50C4600210025F9
:104BF000066A7608760006628169056A134EB0423D
:104C000005D0134EB04202D0124EB04201D101265F
:104C100000E00026002E05D0890889000E461643C4
:104C2000314601E001263143F0260F46B7433946AD
:104C30001E01F0273E4031430A262F46B7433D462A
:104C40002640354381610562F0BD0000002C014023
:104C50000004004000400140F0B50C460021002552
:104C6000066A1027BE4306628169056A032636027A
:104C70000F46B7433946160231430F2636030F4617
:104C8000B74339461E030F273F033E403143A0265A
:104C90002F46B7433D462601A0273E40354381615C
:104CA0000562F0BDF0B50C4600210025066AFF271D
:104CB0000137BE430662C169056A890889000E464C
:104CC00016433146F0260F46B74339461E01F027FA
:104CD0003E403143052676022F46B7433D46260225
:104CE00005277F023E403543C1610562F0BDF0B546
:104CF0000C4600210025066A01273F03BE430662D9
:104D0000C169056A032636020F46B74339461602C3
:104D100031430F2636030F46B74339461E030F278C
:104D20003F033E403143052676032F46B7433D46B9
:104D3000260305277F033E403543C1610562F0BD70
:104D400010B500240F4910480068FBF7CBF9441E4A
:104D50000E480F49086009210D48C16044600021D8
:104D60000161816041618161FEF74FFC002801D043
:104D7000FCF7D5F90648FEF783FC002801D0FCF7C4
:104D8000CEF910BD102700004C010020004001406A
:104D900000020020818CC907C90F002908D00168D2
:104DA0004968012252049143826A114302685160AA
:104DB0000222416A1140002907D001684968D203E4
:104DC0009143C26A1143026851600422416A114052
:104DD000002907D00168496812049143026B11430E
:104DE000026851600822416A1140002907D0016819
:104DF000496812039143426B1143026851601022CB
:104E0000416A1140002907D0016889681202914364
:104E1000826B1143026891602022416A114000298F
:104E200007D00168896812029143C26B114302687E
:104E300091604022416A1140002915D001684968FB
:104E400092039143026C11430268516001221205E2
:104E5000016C914208D101684968032252059143CF
:104E6000426C1143026851608022416A114000295E
:104E700007D00168496812039143826C11430268AC
:104E80005160704701460020C866202269204254C4
:104E90006A20425400BF00226820425400BF002014
:104EA000704770B505466C6A00215A2001535220A4
:104EB00001532046FEF7C8FE70BD01680968FF2255
:104EC00021329143026811600168896849084900EC
:104ED0000268916020226A210A54704710B5044686
:104EE00020680068402188432168086020216920EB
:104EF00001552046FFF7D0F8002010BDF8B5044654
:104F00005C20075B6A20005D222836D12068858CF2
:104F100001210903A06888420AD12069002807D12D
:104F2000666D284638403080606D801C606505E005
:104F3000F8B22840626D511C616510705A20005B08
:104F4000401E81B25A200153002914D12068006804
:104F5000FF2121318843216808602068806840086B
:104F600040002168886020216A2001552046FFF713
:104F700049F80020F8BD0020FCE72068806908217E
:104F80000843216888610220F4E70000FEB504466A
:104F90000025102600270020029001902169A068BA
:104FA000084361690843E1690843054620680068D1
:104FB0006849084028432168086020684068032148
:104FC00009038843E168084321684860216AA069B1
:104FD00008430546206880680B210902884328435E
:104FE0002168886000BF5C492068884217D15B480F
:104FF000006B8007800F002806D0012808D0022807
:1050000008D0032808D101E0002607E0022605E0C9
:10501000042603E0082601E0102600BF06E0504900
:105020002068884201D1002600E0102600BF01213F
:10503000C903E069884249D1042E20D004DC002E47
:1050400007D0022E32D111E0082E25D0102E2DD1FE
:105050002DE0FDF715F940006168490840180090FF
:105060006168FBF73FF880B2029023E061684A086C
:105070003C4BD018FBF736F880B202901AE0FDF7EF
:1050800011F9400061684908401800906168FBF719
:1050900029F880B202900DE061684A0801231B04E0
:1050A000D018FBF71FF880B2029003E000BF012088
:1050B000019000BF00BF2C490298084007460298A3
:1050C0000007400F07432068C76040E0042E21D04E
:1050D00004DC002E07D0022E34D111E0082E26D099
:1050E000102E2FD12FE0FDF7CBF86168490840184A
:1050F00000906168FAF7F6FF80B22168C86025E089
:1051000061684A08194BD018FAF7ECFF80B22168A1
:10511000C8601BE0FDF7C6F86168490840180090B8
:105120006168FAF7DFFF80B22168C8600EE061684D
:105130004A080123DB03D018FAF7D4FF80B22168B4
:10514000C86003E000BF0120019000BF00BF0198CC
:10515000FEBD0000F369FFFF00380140001002406F
:10516000004400400024F400F0FF000000127A0028
:1051700001466920405C212831D15220405A002844
:105180000DD108680068802398430B681860086890
:105190000068402318430B68186000207047012303
:1051A0001B03886898420CD10869002809D1CA6C91
:1051B0001088C005C00D0B681885C86C801CC864B9
:1051C00005E0CB6C581CC86418780B681885522011
:1051D000405A401E83B2522043520020DEE7022094
:1051E000DCE7000010B50248FEF750FD10BD0000DE
:1051F0003003002010B50248FEF748FD10BD000046
:105200004002002010B50C480C4908604B20C0013A
:105210004860002109488160C160016181610C2101
:1052200041610020054948620846FEF7F9FD002863
:1052300001D000BFFEE710BD004400404002002046
:1052400010B50748406A012109060843044948622D
:10525000FCF736F803490860FEF738FF10BD000080
:10526000001002403C01002038B504461F49886800
:1052700080471E490869804700BF1C48006A002813
:1052800003D01A48406A002812D1FF22120422409B
:10529000100C164AD1698847FF2212022240100AD8
:1052A000124AD1698847E0B2104AD169884711E0B3
:1052B000FF2000042040010C68460170FF2000021E
:1052C0002040010A68464170847008480321426A00
:1052D00068469047054988698047054603494869FB
:1052E00080470249C8688047284638BD0801002029
:1052F000F8B504460E461746244988688047234976
:105300000869804700BF2148006A002803D01F4871
:10531000406A00281CD1FF2212042240100C1B4AB4
:10532000D1698847FF2212022240100A174AD16928
:105330008847E0B2154AD1698847002505E013493E
:10534000886980477055681C85B2BD42F7DB16E05E
:10535000FF2000042040010C68460170FF2000027D
:105360002040010A68464170847008480321426A5F
:105370006846904705483946026A304690470349D7
:10538000486980470149C8688047F8BD0801002086
:1053900038B504460D461E49886880471C4908698F
:1053A0008047042004431A48406A002816D1FF228F
:1053B00012042240100C164AD1698847FF221202BB
:1053C0002240100A124AD1698847E0B2104AD169D6
:1053D00088470F48C1692846884712E0FF2000042B
:1053E0002040010C68460170FF2000022040010AA5
:1053F000684641708470C57005480421426A684659
:1054000090470349486980470149C868804738BDCB
:1054100008010020F8B504460E461746234988685F
:105420008047224908698047042004431F48406A96
:1054300000281CD1FF2212042240100C1B4AD16903
:105440008847FF2212022240100A184AD169884771
:10545000E0B2164AD1698847002505E0705D134A1D
:10546000D1698847681C85B2BD42F7DB16E0FF2092
:1054700000042040010C68460170FF20000220401B
:10548000010A68464170847008480321426A6846F0
:10549000904706483946426A304690470349486972
:1054A00080470249C8688047F8BD00000801002015
:1054B0000FB410B503A9044B044A029800F040F859
:1054C00010BC08BC04B01847855C000850010020DF
:1054D0000FB41CB50246002007AC00290BD0491EB2
:1054E00001910092064B6A462146069800F028F882
:1054F000009A002111701CBC08BC04B018470000C1
:10550000B559000830B47446641E2578641CAB425B
:1055100004D3635D5B00E31830BC18471D46F8E711
:1055200002E008C8121F08C1002AFAD1704770476C
:10553000002001E001C1121F002AFBD170470000CA
:10554000FFB591B00F460546002606E025280AD093
:10555000149A139990476D1C761C28780028F5D171
:10556000304615B0F0BD002400940121F34A0294A6
:1055700000E004436D1C2B780846203B9840104205
:10558000F7D128782A280ED0022128780246303A0E
:10559000092A15D8009A0A235A43303A80180C4336
:1055A0006D1C0090F1E701CF0090002805DA012082
:1055B00040030443009840420090022004436D1CC5
:1055C00028782E2815D10420044368786D1C2A28D9
:1055D0000AD101CF6D1C02900BE002990A225143BF
:1055E000303940186D1C029028780146303909295D
:1055F000F3D928786C2810D006DC4C281AD06828FB
:105600000ED06A2817D104E0742813D07A2812D15A
:1056100010E00120400504430CE00121090501E0F0
:10562000032109050C436978814203D1012000055B
:1056300024186D1C6D1C287803906E281ED00CDC7D
:10564000632831D004DC00288AD0582811D1B2E078
:1056500064287BD069280CD178E073282DD004DC35
:105660006F2870D0702804D1A7E075286CD07828F6
:105670006BD0149A13999047761C62E06002400F39
:10568000022807D003280AD0042838680AD0066008
:105690003F1D56E03868F11706604160F8E738684A
:1056A0000680F5E70670F3E738786946087400204D
:1056B000487404A80390012003E038680390002098
:1056C000C0433F1D61070FD5002101E00199491C2E
:1056D000029A0191914213DA8142F7DB019A039910
:1056E000895C0029F2D10BE0002101E00199491CFD
:1056F00001918142FADB019A0399895C0029F5D175
:1057000001990098139A401A00902146149B00F0CA
:105710003BF901998019461807E00398039900782E
:10572000491C0391149A139990470198401E0190C7
:10573000401CF2D12146149B139A009800F014F9F2
:1057400086196D1C09E741E033E034E00A200021AE
:10575000049005916002410F022905D001CFC217C4
:105760009446032905D007E0FF1DFF08FF0003CF83
:1057700006E000B2C2179446042902D140B2C11714
:105780008C4600226146944506DA0A4600214042D2
:1057900091418C462D2102E0210504D52B216A463A
:1057A0001176012103E0E10701D02021F7E7019103
:1057B00054E00A200BE0102009E0102004900021A2
:1057C0000420044308200591029003E008200021F2
:1057D000059104906002410F022905D001CF0022FB
:1057E0009446032906D006E0FF1DFF08FF0003CF03
:1057F0008C4603E080B2042900D1C0B2002101919F
:1058000021072BD50399702906D0049A1021059BF6
:105810004A401A4305D00EE040216A461176012124
:1058200008E06146014306D030216A4611760399AB
:10583000517602210191049A0821059B4A401A439E
:105840000CD16146014301D1610707D530216A4679
:105850001176012101910299491E0291039958295B
:1058600004D037A103910FA90F910DE039A1F9E7F9
:105870006146059B049AFAF77BFC039B8C469B5C74
:105880000F9A521E0F92137061460143F0D10F9888
:1058900007A9081A20300390600704D501200004EE
:1058A0008443029801E0012002900399884201DDBF
:1058B000401A00E000204118029001980918009851
:1058C000401A0090E00306D42146149B139A0098D6
:1058D00000F05AF886190020049008E006A9085C38
:1058E000149A139990470498401C761C04900199CF
:1058F0008842F3DBE0030CD52146149B139A0098F1
:1059000000F042F8861904E0149A30201399904769
:10591000761C0299481E02900029F5DC08E00F98D9
:105920000F990078491C0F91149A13999047761C8F
:105930000399481E03900029F1DCFBE609280100C9
:1059400030313233343536373839616263646566F5
:1059500000000000303132333435363738394142B7
:105960004344454600000000F8B5044600251E46A5
:105970001746880404D405E039462020B0476D1C42
:10598000641EF9D52846F8BDFFB50446002581B050
:105990001E46C80301D5302700E02027880404D51F
:1059A00005E038460399B0476D1C641EF9D52846BA
:1059B00005B0F0BD4A68002A06D00A68531C0B6087
:1059C00010704868401E48607047000010B50446DB
:1059D00000BF082C02DD0020C04310BD00BFA100A5
:1059E000491CC900C81DF9301021FFF7D1FC00BFC8
:1059F000A100491CC900C81DF930FFF735FC00287B
:105A0000F6D1A100491CC900C81DFF30FA301F2182
:105A1000FFF7BEFC0120A0400F49098881430E48D2
:105A200001800120A0400D49098881430B48018075
:105A3000002061000A4A50520A49085500BFA100DF
:105A4000491CC900032212028818FFF70DFC002828
:105A5000F5D10120C1E70000FA000020FC00002081
:105A600014030020FE00002070B505460C462B00F4
:105A7000FFF748FD0604080C1014181C204600F01F
:105A8000B7FE16E0204600F015FE12E0207800F088
:105A9000DBFE70BD00F03CFE20700AE0204600F006
:105AA000EAFE06E0204600F038FE02E00020C04397
:105AB000EFE700BF0020ECE7FEB506460C460025E8
:105AC0000020009001903300FFF71CFD10090C1B13
:105AD000171F2327333F5154585C5D616C7700F0EA
